{
  "address": "0x00B424EEF7090271304f7A5Fc62e33C3BF0D0249",
  "abi": [
    {
      "inputs": [
        {
          "internalType": "bytes32",
          "name": "gasLane",
          "type": "bytes32"
        },
        {
          "internalType": "uint64",
          "name": "subscriptionId",
          "type": "uint64"
        },
        {
          "internalType": "uint32",
          "name": "callbackGasLimit",
          "type": "uint32"
        },
        {
          "internalType": "uint256",
          "name": "entranceFee",
          "type": "uint256"
        },
        {
          "internalType": "address",
          "name": "vrfCoordinatorAddress",
          "type": "address"
        },
        {
          "internalType": "uint256",
          "name": "interval",
          "type": "uint256"
        }
      ],
      "stateMutability": "nonpayable",
      "type": "constructor"
    },
    {
      "inputs": [
        {
          "internalType": "address",
          "name": "have",
          "type": "address"
        },
        {
          "internalType": "address",
          "name": "want",
          "type": "address"
        }
      ],
      "name": "OnlyCoordinatorCanFulfill",
      "type": "error"
    },
    {
      "inputs": [
        {
          "internalType": "uint256",
          "name": "required",
          "type": "uint256"
        },
        {
          "internalType": "uint256",
          "name": "retrieved",
          "type": "uint256"
        }
      ],
      "name": "Raffle__InsufficientStake",
      "type": "error"
    },
    {
      "inputs": [],
      "name": "Raffle__NotOpen",
      "type": "error"
    },
    {
      "inputs": [],
      "name": "Raffle__TransferFailed",
      "type": "error"
    },
    {
      "inputs": [],
      "name": "Raffle__UpkeepNotNeeded",
      "type": "error"
    },
    {
      "anonymous": false,
      "inputs": [
        {
          "indexed": true,
          "internalType": "address",
          "name": "participant",
          "type": "address"
        }
      ],
      "name": "RaffleEnter",
      "type": "event"
    },
    {
      "anonymous": false,
      "inputs": [
        {
          "indexed": true,
          "internalType": "uint256",
          "name": "requestId",
          "type": "uint256"
        }
      ],
      "name": "RequestRaffleWinner",
      "type": "event"
    },
    {
      "anonymous": false,
      "inputs": [
        {
          "indexed": true,
          "internalType": "address",
          "name": "participant",
          "type": "address"
        }
      ],
      "name": "WinnerPicked",
      "type": "event"
    },
    {
      "inputs": [
        {
          "internalType": "bytes",
          "name": "",
          "type": "bytes"
        }
      ],
      "name": "checkUpkeep",
      "outputs": [
        {
          "internalType": "bool",
          "name": "upKeepNeeded",
          "type": "bool"
        },
        {
          "internalType": "bytes",
          "name": "",
          "type": "bytes"
        }
      ],
      "stateMutability": "view",
      "type": "function"
    },
    {
      "inputs": [],
      "name": "enterRaffle",
      "outputs": [],
      "stateMutability": "payable",
      "type": "function"
    },
    {
      "inputs": [],
      "name": "getEntranceFee",
      "outputs": [
        {
          "internalType": "uint256",
          "name": "",
          "type": "uint256"
        }
      ],
      "stateMutability": "view",
      "type": "function"
    },
    {
      "inputs": [],
      "name": "getInterval",
      "outputs": [
        {
          "internalType": "uint256",
          "name": "",
          "type": "uint256"
        }
      ],
      "stateMutability": "view",
      "type": "function"
    },
    {
      "inputs": [],
      "name": "getLastWinner",
      "outputs": [
        {
          "internalType": "address payable",
          "name": "",
          "type": "address"
        }
      ],
      "stateMutability": "view",
      "type": "function"
    },
    {
      "inputs": [],
      "name": "getLatestTimeStamp",
      "outputs": [
        {
          "internalType": "uint256",
          "name": "",
          "type": "uint256"
        }
      ],
      "stateMutability": "view",
      "type": "function"
    },
    {
      "inputs": [],
      "name": "getNumberOfParticipants",
      "outputs": [
        {
          "internalType": "uint256",
          "name": "",
          "type": "uint256"
        }
      ],
      "stateMutability": "view",
      "type": "function"
    },
    {
      "inputs": [],
      "name": "getParticipants",
      "outputs": [
        {
          "internalType": "address payable[]",
          "name": "",
          "type": "address[]"
        }
      ],
      "stateMutability": "view",
      "type": "function"
    },
    {
      "inputs": [],
      "name": "getRaffleState",
      "outputs": [
        {
          "internalType": "enum Raffle.RaffleState",
          "name": "",
          "type": "uint8"
        }
      ],
      "stateMutability": "view",
      "type": "function"
    },
    {
      "inputs": [],
      "name": "getSubscriptionId",
      "outputs": [
        {
          "internalType": "uint64",
          "name": "",
          "type": "uint64"
        }
      ],
      "stateMutability": "view",
      "type": "function"
    },
    {
      "inputs": [
        {
          "internalType": "bytes",
          "name": "",
          "type": "bytes"
        }
      ],
      "name": "performUpkeep",
      "outputs": [],
      "stateMutability": "nonpayable",
      "type": "function"
    },
    {
      "inputs": [
        {
          "internalType": "uint256",
          "name": "requestId",
          "type": "uint256"
        },
        {
          "internalType": "uint256[]",
          "name": "randomWords",
          "type": "uint256[]"
        }
      ],
      "name": "rawFulfillRandomWords",
      "outputs": [],
      "stateMutability": "nonpayable",
      "type": "function"
    }
  ],
  "transactionHash": "0xac92b491d6c81128403394f172d71aef80a0cb5d3aa3694acd61aecb870fbf82",
  "args": [
    "0x79d3d8832d904592c0bf9818b621522c988bb8b0c05cdc3b15aea1b6e8db0c15",
    "158",
    "500000",
    "1000000000000000",
    "0x2Ca8E0C643bDe4C2E08ab1fA0da3401AdAD7734D",
    "30"
  ],
  "numDeployments": 2,
  "solcInputHash": "e8b19c8f261d9e8d314a9195350b95b7",
  "bytecode": "0x6101606040523480156200001257600080fd5b506040516200193638038062001936833981810160405281019062000038919062000294565b818073ffffffffffffffffffffffffffffffffffffffff1660808173ffffffffffffffffffffffffffffffffffffffff1681525050508560c081815250508467ffffffffffffffff1660e08167ffffffffffffffff16815250508363ffffffff166101008163ffffffff16815250508261012081815250508173ffffffffffffffffffffffffffffffffffffffff1660a08173ffffffffffffffffffffffffffffffffffffffff16815250506000600160146101000a81548160ff021916908360018111156200010d576200010c62000330565b5b0217905550806101408181525050426002819055505050505050506200035f565b600080fd5b6000819050919050565b620001488162000133565b81146200015457600080fd5b50565b60008151905062000168816200013d565b92915050565b600067ffffffffffffffff82169050919050565b6200018d816200016e565b81146200019957600080fd5b50565b600081519050620001ad8162000182565b92915050565b600063ffffffff82169050919050565b620001ce81620001b3565b8114620001da57600080fd5b50565b600081519050620001ee81620001c3565b92915050565b6000819050919050565b6200020981620001f4565b81146200021557600080fd5b50565b6000815190506200022981620001fe565b92915050565b600073ffffffffffffffffffffffffffffffffffffffff82169050919050565b60006200025c826200022f565b9050919050565b6200026e816200024f565b81146200027a57600080fd5b50565b6000815190506200028e8162000263565b92915050565b60008060008060008060c08789031215620002b457620002b36200012e565b5b6000620002c489828a0162000157565b9650506020620002d789828a016200019c565b9550506040620002ea89828a01620001dd565b9450506060620002fd89828a0162000218565b93505060806200031089828a016200027d565b92505060a06200032389828a0162000218565b9150509295509295509295565b7f4e487b7100000000000000000000000000000000000000000000000000000000600052602160045260246000fd5b60805160a05160c05160e051610100516101205161014051611559620003dd600039600081816107dd015261084e0152600081816102a20152818161039f01526103c601526000610644015260008181610621015261088201526000610600015260006105c40152600081816102df015261033301526115596000f3fe6080604052600436106100a75760003560e01c80635aa68ac0116100645780635aa68ac0146101895780636e04ff0d146101b457806391ad27b4146101f2578063c80c28a21461021d578063de3d9fb714610248578063f88649a114610273576100a7565b806309bc33a7146100ac578063115cbaf5146100d75780631fe543e3146101025780632cfcc5391461012b578063320229eb146101355780634585e33b14610160575b600080fd5b3480156100b857600080fd5b506100c161029e565b6040516100ce9190610bf9565b60405180910390f35b3480156100e357600080fd5b506100ec6102c6565b6040516100f99190610c8b565b60405180910390f35b34801561010e57600080fd5b5061012960048036038101906101249190610e3f565b6102dd565b005b61013361039d565b005b34801561014157600080fd5b5061014a610538565b6040516101579190610bf9565b60405180910390f35b34801561016c57600080fd5b5061018760048036038101906101829190610ef6565b610542565b005b34801561019557600080fd5b5061019e61070c565b6040516101ab9190611033565b60405180910390f35b3480156101c057600080fd5b506101db60048036038101906101d6919061110a565b61079a565b6040516101e99291906111f6565b60405180910390f35b3480156101fe57600080fd5b5061020761084a565b6040516102149190610bf9565b60405180910390f35b34801561022957600080fd5b50610232610872565b60405161023f9190610bf9565b60405180910390f35b34801561025457600080fd5b5061025d61087e565b60405161026a9190611249565b60405180910390f35b34801561027f57600080fd5b506102886108a6565b6040516102959190611273565b60405180910390f35b60007f0000000000000000000000000000000000000000000000000000000000000000905090565b6000600160149054906101000a900460ff16905090565b7f000000000000000000000000000000000000000000000000000000000000000073ffffffffffffffffffffffffffffffffffffffff163373ffffffffffffffffffffffffffffffffffffffff161461038f57337f00000000000000000000000000000000000000000000000000000000000000006040517f1cf993f40000000000000000000000000000000000000000000000000000000081526004016103869291906112af565b60405180910390fd5b61039982826108d0565b5050565b7f00000000000000000000000000000000000000000000000000000000000000003411610423577f0000000000000000000000000000000000000000000000000000000000000000346040517fe42fd3a100000000000000000000000000000000000000000000000000000000815260040161041a9291906112d8565b60405180910390fd5b6000600181111561043757610436610c14565b5b600160149054906101000a900460ff16600181111561045957610458610c14565b5b14610490576040517f1425571c00000000000000000000000000000000000000000000000000000000815260040160405180910390fd5b6000339080600181540180825580915050600190039060005260206000200160009091909190916101000a81548173ffffffffffffffffffffffffffffffffffffffff021916908373ffffffffffffffffffffffffffffffffffffffff1602179055503373ffffffffffffffffffffffffffffffffffffffff167f0805e1d667bddb8a95f0f09880cf94f403fb596ce79928d9f29b74203ba284d460405160405180910390a2565b6000600254905090565b600061055c6040518060200160405280600081525061079a565b50905080610596576040517f8e4bc81700000000000000000000000000000000000000000000000000000000815260040160405180910390fd5b60018060146101000a81548160ff021916908360018111156105bb576105ba610c14565b5b021790555060007f000000000000000000000000000000000000000000000000000000000000000073ffffffffffffffffffffffffffffffffffffffff16635d3b1d307f00000000000000000000000000000000000000000000000000000000000000007f000000000000000000000000000000000000000000000000000000000000000060037f000000000000000000000000000000000000000000000000000000000000000060016040518663ffffffff1660e01b8152600401610685959493929190611356565b602060405180830381600087803b15801561069f57600080fd5b505af11580156106b3573d6000803e3d6000fd5b505050506040513d601f19601f820116820180604052508101906106d791906113be565b9050807fde6349b018d6c03d837b67d9a198a6ba4842546f2295fe963fae141e5dbaef8160405160405180910390a250505050565b6060600080548060200260200160405190810160405280929190818152602001828054801561079057602002820191906000526020600020905b8160009054906101000a900473ffffffffffffffffffffffffffffffffffffffff1673ffffffffffffffffffffffffffffffffffffffff1681526020019060010190808311610746575b5050505050905090565b600060606000600160149054906101000a900460ff1660018111156107c2576107c1610c14565b5b600060018111156107d6576107d5610c14565b5b14905060007f00000000000000000000000000000000000000000000000000000000000000006002544261080a919061141a565b1015905060006001600080549050101590506000804711905083801561082d5750825b80156108365750815b801561083f5750805b955050505050915091565b60007f0000000000000000000000000000000000000000000000000000000000000000905090565b60008080549050905090565b60007f0000000000000000000000000000000000000000000000000000000000000000905090565b6000600160009054906101000a900473ffffffffffffffffffffffffffffffffffffffff16905090565b60008080549050826000815181106108eb576108ea61144e565b5b60200260200101516108fd91906114ac565b9050600081815481106109135761091261144e565b5b9060005260206000200160009054906101000a900473ffffffffffffffffffffffffffffffffffffffff16600160006101000a81548173ffffffffffffffffffffffffffffffffffffffff021916908373ffffffffffffffffffffffffffffffffffffffff1602179055506000600160009054906101000a900473ffffffffffffffffffffffffffffffffffffffff1673ffffffffffffffffffffffffffffffffffffffff16476040516109c69061150e565b60006040518083038185875af1925050503d8060008114610a03576040519150601f19603f3d011682016040523d82523d6000602084013e610a08565b606091505b5050905080610a43576040517fa1d04b3900000000000000000000000000000000000000000000000000000000815260040160405180910390fd5b6000600160146101000a81548160ff02191690836001811115610a6957610a68610c14565b5b0217905550600067ffffffffffffffff811115610a8957610a88610cfc565b5b604051908082528060200260200182016040528015610ab75781602001602082028036833780820191505090505b5060009080519060200190610acd929190610b39565b50600160009054906101000a900473ffffffffffffffffffffffffffffffffffffffff1673ffffffffffffffffffffffffffffffffffffffff167f5b690ec4a06fe979403046eaeea5b3ce38524683c3001f662c8b5a829632f7df60405160405180910390a250505050565b828054828255906000526020600020908101928215610bb2579160200282015b82811115610bb15782518260006101000a81548173ffffffffffffffffffffffffffffffffffffffff021916908373ffffffffffffffffffffffffffffffffffffffff16021790555091602001919060010190610b59565b5b509050610bbf9190610bc3565b5090565b5b80821115610bdc576000816000905550600101610bc4565b5090565b6000819050919050565b610bf381610be0565b82525050565b6000602082019050610c0e6000830184610bea565b92915050565b7f4e487b7100000000000000000000000000000000000000000000000000000000600052602160045260246000fd5b60028110610c5457610c53610c14565b5b50565b6000819050610c6582610c43565b919050565b6000610c7582610c57565b9050919050565b610c8581610c6a565b82525050565b6000602082019050610ca06000830184610c7c565b92915050565b6000604051905090565b600080fd5b600080fd5b610cc381610be0565b8114610cce57600080fd5b50565b600081359050610ce081610cba565b92915050565b600080fd5b6000601f19601f8301169050919050565b7f4e487b7100000000000000000000000000000000000000000000000000000000600052604160045260246000fd5b610d3482610ceb565b810181811067ffffffffffffffff82111715610d5357610d52610cfc565b5b80604052505050565b6000610d66610ca6565b9050610d728282610d2b565b919050565b600067ffffffffffffffff821115610d9257610d91610cfc565b5b602082029050602081019050919050565b600080fd5b6000610dbb610db684610d77565b610d5c565b90508083825260208201905060208402830185811115610dde57610ddd610da3565b5b835b81811015610e075780610df38882610cd1565b845260208401935050602081019050610de0565b5050509392505050565b600082601f830112610e2657610e25610ce6565b5b8135610e36848260208601610da8565b91505092915050565b60008060408385031215610e5657610e55610cb0565b5b6000610e6485828601610cd1565b925050602083013567ffffffffffffffff811115610e8557610e84610cb5565b5b610e9185828601610e11565b9150509250929050565b600080fd5b60008083601f840112610eb657610eb5610ce6565b5b8235905067ffffffffffffffff811115610ed357610ed2610e9b565b5b602083019150836001820283011115610eef57610eee610da3565b5b9250929050565b60008060208385031215610f0d57610f0c610cb0565b5b600083013567ffffffffffffffff811115610f2b57610f2a610cb5565b5b610f3785828601610ea0565b92509250509250929050565b600081519050919050565b600082825260208201905092915050565b6000819050602082019050919050565b600073ffffffffffffffffffffffffffffffffffffffff82169050919050565b6000610f9a82610f6f565b9050919050565b610faa81610f8f565b82525050565b6000610fbc8383610fa1565b60208301905092915050565b6000602082019050919050565b6000610fe082610f43565b610fea8185610f4e565b9350610ff583610f5f565b8060005b8381101561102657815161100d8882610fb0565b975061101883610fc8565b925050600181019050610ff9565b5085935050505092915050565b6000602082019050818103600083015261104d8184610fd5565b905092915050565b600080fd5b600067ffffffffffffffff82111561107557611074610cfc565b5b61107e82610ceb565b9050602081019050919050565b82818337600083830152505050565b60006110ad6110a88461105a565b610d5c565b9050828152602081018484840111156110c9576110c8611055565b5b6110d484828561108b565b509392505050565b600082601f8301126110f1576110f0610ce6565b5b813561110184826020860161109a565b91505092915050565b6000602082840312156111205761111f610cb0565b5b600082013567ffffffffffffffff81111561113e5761113d610cb5565b5b61114a848285016110dc565b91505092915050565b60008115159050919050565b61116881611153565b82525050565b600081519050919050565b600082825260208201905092915050565b60005b838110156111a857808201518184015260208101905061118d565b838111156111b7576000848401525b50505050565b60006111c88261116e565b6111d28185611179565b93506111e281856020860161118a565b6111eb81610ceb565b840191505092915050565b600060408201905061120b600083018561115f565b818103602083015261121d81846111bd565b90509392505050565b600067ffffffffffffffff82169050919050565b61124381611226565b82525050565b600060208201905061125e600083018461123a565b92915050565b61126d81610f8f565b82525050565b60006020820190506112886000830184611264565b92915050565b600061129982610f6f565b9050919050565b6112a98161128e565b82525050565b60006040820190506112c460008301856112a0565b6112d160208301846112a0565b9392505050565b60006040820190506112ed6000830185610bea565b6112fa6020830184610bea565b9392505050565b6000819050919050565b61131481611301565b82525050565b600061ffff82169050919050565b6113318161131a565b82525050565b600063ffffffff82169050919050565b61135081611337565b82525050565b600060a08201905061136b600083018861130b565b611378602083018761123a565b6113856040830186611328565b6113926060830185611347565b61139f6080830184611347565b9695505050505050565b6000815190506113b881610cba565b92915050565b6000602082840312156113d4576113d3610cb0565b5b60006113e2848285016113a9565b91505092915050565b7f4e487b7100000000000000000000000000000000000000000000000000000000600052601160045260246000fd5b600061142582610be0565b915061143083610be0565b925082821015611443576114426113eb565b5b828203905092915050565b7f4e487b7100000000000000000000000000000000000000000000000000000000600052603260045260246000fd5b7f4e487b7100000000000000000000000000000000000000000000000000000000600052601260045260246000fd5b60006114b782610be0565b91506114c283610be0565b9250826114d2576114d161147d565b5b828206905092915050565b600081905092915050565b50565b60006114f86000836114dd565b9150611503826114e8565b600082019050919050565b6000611519826114eb565b915081905091905056fea264697066735822122018fa4f796fa350a960ce61e426d29a42ad749e0aa2778aa9f17571dbbe79b69664736f6c63430008090033",
  "devdoc": {
    "kind": "dev",
    "methods": {
      "checkUpkeep(bytes)": {
        "details": "This function is needed for ChainLink to work properly `upkeepNeeded` need to be true to succeed, meet the following criteria:    1. Time interval should have passed    2. The lottery should be played with at least 1 player    3. Subscripton is funded with LINK    4. The lottery should be in \"open\" state"
      }
    },
    "version": 1
  },
  "userdoc": {
    "kind": "user",
    "methods": {},
    "version": 1
  },
  "storageLayout": {
    "storage": [
      {
        "astId": 1168,
        "contract": "contracts/Raffle.sol:Raffle",
        "label": "s_participants",
        "offset": 0,
        "slot": "0",
        "type": "t_array(t_address_payable)dyn_storage"
      },
      {
        "astId": 1170,
        "contract": "contracts/Raffle.sol:Raffle",
        "label": "s_lastWinner",
        "offset": 0,
        "slot": "1",
        "type": "t_address_payable"
      },
      {
        "astId": 1173,
        "contract": "contracts/Raffle.sol:Raffle",
        "label": "s_raffleState",
        "offset": 20,
        "slot": "1",
        "type": "t_enum(RaffleState)1154"
      },
      {
        "astId": 1177,
        "contract": "contracts/Raffle.sol:Raffle",
        "label": "s_lastTimeStamp",
        "offset": 0,
        "slot": "2",
        "type": "t_uint256"
      }
    ],
    "types": {
      "t_address_payable": {
        "encoding": "inplace",
        "label": "address payable",
        "numberOfBytes": "20"
      },
      "t_array(t_address_payable)dyn_storage": {
        "base": "t_address_payable",
        "encoding": "dynamic_array",
        "label": "address payable[]",
        "numberOfBytes": "32"
      },
      "t_enum(RaffleState)1154": {
        "encoding": "inplace",
        "label": "enum Raffle.RaffleState",
        "numberOfBytes": "1"
      },
      "t_uint256": {
        "encoding": "inplace",
        "label": "uint256",
        "numberOfBytes": "32"
      }
    }
  }
}