{
  "address": "0xc51DF0F364de774A21ce3FE931E1505B7e4a73Bd",
  "abi": [
    {
      "inputs": [
        {
          "internalType": "address",
          "name": "priceFeedAddress",
          "type": "address"
        },
        {
          "internalType": "string",
          "name": "lowSvg",
          "type": "string"
        },
        {
          "internalType": "string",
          "name": "highSvg",
          "type": "string"
        }
      ],
      "stateMutability": "nonpayable",
      "type": "constructor"
    },
    {
      "anonymous": false,
      "inputs": [
        {
          "indexed": true,
          "internalType": "address",
          "name": "owner",
          "type": "address"
        },
        {
          "indexed": true,
          "internalType": "address",
          "name": "approved",
          "type": "address"
        },
        {
          "indexed": true,
          "internalType": "uint256",
          "name": "tokenId",
          "type": "uint256"
        }
      ],
      "name": "Approval",
      "type": "event"
    },
    {
      "anonymous": false,
      "inputs": [
        {
          "indexed": true,
          "internalType": "address",
          "name": "owner",
          "type": "address"
        },
        {
          "indexed": true,
          "internalType": "address",
          "name": "operator",
          "type": "address"
        },
        {
          "indexed": false,
          "internalType": "bool",
          "name": "approved",
          "type": "bool"
        }
      ],
      "name": "ApprovalForAll",
      "type": "event"
    },
    {
      "anonymous": false,
      "inputs": [
        {
          "indexed": true,
          "internalType": "uint256",
          "name": "tokenId",
          "type": "uint256"
        },
        {
          "indexed": false,
          "internalType": "int256",
          "name": "highValue",
          "type": "int256"
        }
      ],
      "name": "NewNFT",
      "type": "event"
    },
    {
      "anonymous": false,
      "inputs": [
        {
          "indexed": true,
          "internalType": "address",
          "name": "from",
          "type": "address"
        },
        {
          "indexed": true,
          "internalType": "address",
          "name": "to",
          "type": "address"
        },
        {
          "indexed": true,
          "internalType": "uint256",
          "name": "tokenId",
          "type": "uint256"
        }
      ],
      "name": "Transfer",
      "type": "event"
    },
    {
      "inputs": [
        {
          "internalType": "address",
          "name": "to",
          "type": "address"
        },
        {
          "internalType": "uint256",
          "name": "tokenId",
          "type": "uint256"
        }
      ],
      "name": "approve",
      "outputs": [],
      "stateMutability": "nonpayable",
      "type": "function"
    },
    {
      "inputs": [
        {
          "internalType": "address",
          "name": "owner",
          "type": "address"
        }
      ],
      "name": "balanceOf",
      "outputs": [
        {
          "internalType": "uint256",
          "name": "",
          "type": "uint256"
        }
      ],
      "stateMutability": "view",
      "type": "function"
    },
    {
      "inputs": [
        {
          "internalType": "uint256",
          "name": "tokenId",
          "type": "uint256"
        }
      ],
      "name": "getApproved",
      "outputs": [
        {
          "internalType": "address",
          "name": "",
          "type": "address"
        }
      ],
      "stateMutability": "view",
      "type": "function"
    },
    {
      "inputs": [
        {
          "internalType": "address",
          "name": "owner",
          "type": "address"
        },
        {
          "internalType": "address",
          "name": "operator",
          "type": "address"
        }
      ],
      "name": "isApprovedForAll",
      "outputs": [
        {
          "internalType": "bool",
          "name": "",
          "type": "bool"
        }
      ],
      "stateMutability": "view",
      "type": "function"
    },
    {
      "inputs": [
        {
          "internalType": "int256",
          "name": "highValue",
          "type": "int256"
        }
      ],
      "name": "mintNFT",
      "outputs": [],
      "stateMutability": "nonpayable",
      "type": "function"
    },
    {
      "inputs": [],
      "name": "name",
      "outputs": [
        {
          "internalType": "string",
          "name": "",
          "type": "string"
        }
      ],
      "stateMutability": "view",
      "type": "function"
    },
    {
      "inputs": [
        {
          "internalType": "uint256",
          "name": "tokenId",
          "type": "uint256"
        }
      ],
      "name": "ownerOf",
      "outputs": [
        {
          "internalType": "address",
          "name": "",
          "type": "address"
        }
      ],
      "stateMutability": "view",
      "type": "function"
    },
    {
      "inputs": [],
      "name": "s_highImageSvg",
      "outputs": [
        {
          "internalType": "string",
          "name": "",
          "type": "string"
        }
      ],
      "stateMutability": "view",
      "type": "function"
    },
    {
      "inputs": [],
      "name": "s_highImageURI",
      "outputs": [
        {
          "internalType": "string",
          "name": "",
          "type": "string"
        }
      ],
      "stateMutability": "view",
      "type": "function"
    },
    {
      "inputs": [],
      "name": "s_lowImageSvg",
      "outputs": [
        {
          "internalType": "string",
          "name": "",
          "type": "string"
        }
      ],
      "stateMutability": "view",
      "type": "function"
    },
    {
      "inputs": [],
      "name": "s_lowImageURI",
      "outputs": [
        {
          "internalType": "string",
          "name": "",
          "type": "string"
        }
      ],
      "stateMutability": "view",
      "type": "function"
    },
    {
      "inputs": [
        {
          "internalType": "address",
          "name": "from",
          "type": "address"
        },
        {
          "internalType": "address",
          "name": "to",
          "type": "address"
        },
        {
          "internalType": "uint256",
          "name": "tokenId",
          "type": "uint256"
        }
      ],
      "name": "safeTransferFrom",
      "outputs": [],
      "stateMutability": "nonpayable",
      "type": "function"
    },
    {
      "inputs": [
        {
          "internalType": "address",
          "name": "from",
          "type": "address"
        },
        {
          "internalType": "address",
          "name": "to",
          "type": "address"
        },
        {
          "internalType": "uint256",
          "name": "tokenId",
          "type": "uint256"
        },
        {
          "internalType": "bytes",
          "name": "data",
          "type": "bytes"
        }
      ],
      "name": "safeTransferFrom",
      "outputs": [],
      "stateMutability": "nonpayable",
      "type": "function"
    },
    {
      "inputs": [
        {
          "internalType": "address",
          "name": "operator",
          "type": "address"
        },
        {
          "internalType": "bool",
          "name": "approved",
          "type": "bool"
        }
      ],
      "name": "setApprovalForAll",
      "outputs": [],
      "stateMutability": "nonpayable",
      "type": "function"
    },
    {
      "inputs": [
        {
          "internalType": "bytes4",
          "name": "interfaceId",
          "type": "bytes4"
        }
      ],
      "name": "supportsInterface",
      "outputs": [
        {
          "internalType": "bool",
          "name": "",
          "type": "bool"
        }
      ],
      "stateMutability": "view",
      "type": "function"
    },
    {
      "inputs": [
        {
          "internalType": "string",
          "name": "svg",
          "type": "string"
        }
      ],
      "name": "svgToImageURI",
      "outputs": [
        {
          "internalType": "string",
          "name": "",
          "type": "string"
        }
      ],
      "stateMutability": "pure",
      "type": "function"
    },
    {
      "inputs": [],
      "name": "symbol",
      "outputs": [
        {
          "internalType": "string",
          "name": "",
          "type": "string"
        }
      ],
      "stateMutability": "view",
      "type": "function"
    },
    {
      "inputs": [
        {
          "internalType": "uint256",
          "name": "tokenId",
          "type": "uint256"
        }
      ],
      "name": "tokenURI",
      "outputs": [
        {
          "internalType": "string",
          "name": "",
          "type": "string"
        }
      ],
      "stateMutability": "view",
      "type": "function"
    },
    {
      "inputs": [
        {
          "internalType": "address",
          "name": "from",
          "type": "address"
        },
        {
          "internalType": "address",
          "name": "to",
          "type": "address"
        },
        {
          "internalType": "uint256",
          "name": "tokenId",
          "type": "uint256"
        }
      ],
      "name": "transferFrom",
      "outputs": [],
      "stateMutability": "nonpayable",
      "type": "function"
    }
  ],
  "transactionHash": "0x83369f87a4783d3c868dc00b55a7f961f1545a168fc1241c4500f31794bdb657",
  "args": [
    "0xD4a33860578De61DBAbDc8BFdb98FD742fA7028e",
    "<?xml version=\"1.0\" encoding=\"UTF-8\"?>\n<svg xmlns=\"http://www.w3.org/2000/svg\" viewBox=\"-5 0 110 105\" xmlns:xlink=\"http://www.w3.org/1999/xlink\">\n<title>Hand of Eris</title>\n<desc>symbol \"hand of eris\" https://en.wikipedia.org/wiki/Discordianism#Hand_of_Eris https://commons.wikimedia.org/wiki/Category:Proposed_dwarf_planet_symbols</desc>\n<!-- remix+332637, discordianism, religion, chaos -->\n<g id=\"eris\" fill=\"none\" stroke-width=\"5\" stroke=\"#000\">\n  <circle r=\"50\" cx=\"52.5\" cy=\"52.5\"/>\n  <path \n     d=\"M22.5 22.5 a-30,-30 0,0,1 0,60\"\n     id=\"hc\" />\n  <use xlink:href=\"#hc\" transform=\"scale(-1,1) translate(-105)\" />\n  <path\n     d=\"M52.5 97.5 v-90\"\n     id=\"v\" />\n</g>\n</svg>",
    "<?xml version=\"1.0\"?>\n<svg\n    xmlns:rdf=\"http://www.w3.org/1999/02/22-rdf-syntax-ns#\"\n    xmlns=\"http://www.w3.org/2000/svg\"\n    xmlns:cc=\"http://creativecommons.org/ns#\"\n    xmlns:dc=\"http://purl.org/dc/elements/1.1/\"\n    xmlns:svg=\"http://www.w3.org/2000/svg\"\n    xmlns:inkscape=\"http://www.inkscape.org/namespaces/inkscape\"\n    xmlns:sodipodi=\"http://sodipodi.sourceforge.net/DTD/sodipodi-0.dtd\"\n    xmlns:ns1=\"http://sozi.baierouge.fr\"\n    xmlns:xlink=\"http://www.w3.org/1999/xlink\"\n    id=\"svg2996\"\n    viewBox=\"0 0 140.75 185.12\"\n    version=\"1.1\"\n  >\n  <g\n      id=\"layer2\"\n      transform=\"translate(-81.439 -8.9114)\"\n    >\n    <g\n        id=\"g3028\"\n      >\n      <g\n          id=\"g3068\"\n          stroke=\"#000\"\n        >\n        <g\n            id=\"g3075\"\n          >\n          <g\n              id=\"g3071\"\n              stroke-width=\"1.5\"\n            >\n            <path\n                id=\"path2986\"\n                style=\"block-progression:tb;color:#000000;text-transform:none;text-indent:0\"\n                d=\"m102.62 159.07c-9.3333-1.7568-18.386 4.4282-20.143 13.761-1.7567 9.3333 4.434 18.356 13.767 20.112 9.3333 1.7568 18.35-4.4033 20.107-13.737 1.7567-9.3333-4.3975-18.381-13.731-20.137zm-0.55492 2.9482c7.7399 1.4568 12.794 8.8943 11.337 16.634-1.4568 7.7399-8.8636 12.8-16.604 11.343-7.7399-1.4568-12.831-8.8693-11.374-16.609 1.4568-7.7399 8.9001-12.825 16.64-11.368zm77.36-70.99c-27.969-5.2645-54.949 13.168-60.214 41.137-5.2644 27.969 13.168 54.949 41.137 60.214 27.969 5.2644 54.949-13.168 60.214-41.137 5.2645-27.969-13.168-54.949-41.137-60.214zm-0.55199 2.9326c26.376 4.9645 43.721 30.353 38.757 56.729-4.9646 26.376-30.348 43.692-56.724 38.727-26.376-4.9646-43.697-30.319-38.733-56.694 4.9646-26.376 30.324-43.727 56.7-38.762z\"\n            />\n            <path\n                id=\"path2988\"\n                style=\"block-progression:tb;color:#000000;text-transform:none;text-indent:0\"\n                d=\"m170.52 85.582c-15.16-2.9969-34.908 5.9486-48.198 25.461-13.671 20.072-20.68 47.969-22.519 64.733l2.9945 0.30924c1.7875-16.292 8.7943-43.945 22.002-63.336 12.807-18.804 31.732-26.833 45.296-24.068l-1.5068 49.227c-0.86023 0.41579-1.5313 1.2088-1.7216 2.2199-0.31847 1.6919 0.80686 3.3 2.4988 3.6184 1.6919 0.31846 3.3249-0.77037 3.6433-2.4623 0.24707-1.3126-0.38048-2.5773-1.4586-3.2318l1.552-50.649 0.0354-1.2017-1.1554-0.28108c-0.47909-0.12155-0.97352-0.24221-1.4626-0.33888z\"\n            />\n          </g\n          >\n          <path\n              id=\"path3009\"\n              style=\"color:#000000\"\n              stroke-width=\"2\"\n              fill=\"none\"\n              d=\"m153.7 139.47 32.663-2.6051\"\n          />\n        </g\n        >\n        <path\n            id=\"path3066\"\n            style=\"color:#000000\"\n            stroke-width=\"2\"\n            fill=\"none\"\n            d=\"m168.73 138.27-8.4164-64.125 15.63-1.6031\"\n        />\n      </g\n      >\n      <g\n          id=\"g3132\"\n        >\n        <g\n            id=\"g3059\"\n            stroke=\"#000\"\n          >\n          <path\n              id=\"path3007\"\n              stroke-width=\"1.5\"\n              d=\"m133.91 9.6875c-1.5062 0.11882-3.485 0.6456-5.5625 1.5938-4.155 1.8963-7.1606 4.6851-6.7188 6.2188 0.6568 1.9759 1.4038 3.9382 2.125 5.8125-2.4847 1.7266-3.9035 3.4545-3.5 4.625 0.71456 2.0729 6.7493 1.6567 13.469-0.90625 6.7195-2.563 11.59-6.3021 10.875-8.375-0.42068-1.2203-2.7147-1.5861-5.875-1.1562-0.73872-2.3174-1.5438-4.6394-2.0312-6.875-0.22093-0.76684-1.275-1.0563-2.7812-0.9375z\"\n          />\n          <path\n              id=\"path3006\"\n              style=\"color:#000000\"\n              stroke-width=\".75\"\n              fill=\"#cccccf\"\n              d=\"m134.61 39.365c3.1173-2.5505 2.2672-5.3845 2.2672-5.3845 5.6535 0.96509 3.6458-2.8106 3.9675-5.3845 3.4007-0.1417 0.97272-3.1355-1.1336-7.0848-3.5424-3.6841-13.319 1.7004-13.319 1.7004 2.5505 5.6679-2.5505 11.619-2.5505 11.619z\"\n          />\n        </g\n        >\n        <g\n            id=\"g3124\"\n          >\n          <path\n              id=\"path3010\"\n              style=\"color:#000000\"\n              stroke-width=\".5\"\n              stroke=\"#000\"\n              d=\"m133.94 20.438c-3.7292 0.67804-7.5312 2.7812-7.5312 2.7812 1.1661 2.5912 0.72018 5.2298-0.0937 7.3438 1.8482-0.27321 3.9084-0.9776 4.0625-2.75 0 0-1.0792-1.1851-0.9375-2.5312 0 0-0.49255-6.2511 3.6875-0.9375l0.4375 1 1.3438-0.21875c-0.81437-1.5512-0.93874-3.3513-0.875-4.6875-0.0305 0.0054-0.0633-0.0055-0.0937 0z\"\n          />\n          <g\n              id=\"g3023\"\n            >\n            <g\n                id=\"g3017\"\n              >\n              <path\n                  id=\"path3008\"\n                  style=\"color:#000000\"\n                  d=\"m133.47 28.156c1.4834 3.2355 2.0648 7.4864 2.3125 10 1.6834-2.1625 1.0938-4.1875 1.0938-4.1875 3.6828 0.62868 4.12-0.74791 4.0625-2.5-4.0066 1.392-7.4742-3.3536-7.4688-3.3125z\"\n              />\n              <path\n                  id=\"path3015\"\n                  style=\"color:#000000\"\n                  d=\"m139.72 27.754c0.70136 0.90175 2.4047 0.45088 2.4047 0.45088 1.4027-1.4027-2.4047-0.45088-2.4047-0.45088z\"\n              />\n            </g\n            >\n            <path\n                id=\"path3021\"\n                style=\"color:#000000\"\n                d=\"m137.42 24.147c2.1041 1.6532 2.9557 0.40078 2.9557 0.40078-0.90175-0.85165-2.9557-0.40078-2.9557-0.40078z\"\n            />\n          </g\n          >\n        </g\n        >\n        <path\n            id=\"path3026\"\n            style=\"color:#000000\"\n            stroke-width=\"1.5\"\n            stroke=\"#000\"\n            d=\"m127.24 32.28c-1.9838-0.56679-3.4007 1.9838-3.4007 1.9838-11.336 9.352-3.1173 34.007-3.1173 34.007-2.0103 17.941 4.4986 35.342 2.8339 55.262 3.4007 0.56679 6.518-2.2671 6.518-2.2671v3.1173c7.8104 1.2134 20.104-22.044 19.554-29.189 2.5505 1.1336 6.8014 3.4007 6.8014 3.4007-1.7004 0.85018 1.1336 2.1254 1.1336 2.1254-4.3926 0-11.884 24.123-11.884 24.123-7.6705 4.0747-2.0026 9.1758-2.0026 9.1758 4.5343 0.28339 9.6354 3.9675 9.6354 3.9675l7.935-0.56678c-7.6516-5.3845-6.2346-7.6516-6.2346-7.6516l1.9838 0.28339c0.28339-5.1011 9.9188-24.655 9.9188-24.655-0.85018 9.0686 3.6841 26.922 3.6841 26.922-3.1173 4.8177 3.9675 10.202 3.9675 10.202 2.5505-0.28339 6.8014-3.9675 6.8014-3.9675l-0.56678-1.1336c7.3682-0.2834 13.886-7.935 13.886-7.935 0.85018-3.9675-10.486 0.85018-10.486 0.85018-5.1011 0-5.9512-5.1011-5.9512-5.1011 0.85018-13.319 0.56679-35.708 0.56679-35.708 1.1336-5.3845-17.992-11.133-20.688-13.886 0.56678-1.417 2.2671-7.6516 2.2671-7.6516-5.3845-2.8339-14.634-9.2386-18.137-10.202-3.4007-21.821-15.02-25.505-15.02-25.505z\"\n        />\n        <path\n            id=\"path3028\"\n            style=\"color:#000000\"\n            fill=\"#fff\"\n            d=\"m170.32 136.85c8.2184 0.56679 11.052-6.518 11.052-6.518-4.5343 2.5505-10.769 2.8339-10.769 2.8339-3.6841 2.5505-0.28339 3.6841-0.28339 3.6841z\"\n        />\n        <g\n            id=\"g3114\"\n          >\n          <path\n              id=\"path3030\"\n              style=\"color:#000000\"\n              d=\"m136.26 41.08c2.7426-6.1777-10.22-11.623-10.22-11.623-4.4086-0.40078-1.4027 4.0078-1.4027 4.0078 4.1696-2.6839 11.623 7.6148 11.623 7.6148z\"\n              stroke=\"#000\"\n              stroke-width=\".5\"\n              fill=\"#fff\"\n          />\n          <path\n              id=\"path3032\"\n              style=\"color:#000000\"\n              d=\"m136.45 41.632c4.2509-4.2509-0.42508-3.9675-0.42508-3.9675z\"\n          />\n        </g\n        >\n        <path\n            id=\"path3040\"\n            style=\"color:#000000\"\n            d=\"m163.12 75.747c1.6031 0.20039 3.0058-0.20039 3.0058-0.20039 1.8035 4.6089 5.0097 2.4047 5.0097 2.4047 4.2082-4.609 2.0039-6.0117 2.0039-6.0117-0.20039-3.8074-9.4183-1.4027-9.4183-1.4027z\"\n            stroke=\"#000\"\n            stroke-width=\".5\"\n            fill=\"#cccccf\"\n        />\n        <path\n            id=\"path3038\"\n            style=\"color:#000000\"\n            d=\"m159.55 67.704c7.0848 0 5.3845 3.1173 5.3845 3.1173-0.70848 5.3845-3.259 6.8014-3.259 6.8014-3.6841 0-4.2509-1.417-4.2509-1.417z\"\n            stroke=\"#000\"\n            stroke-width=\".5\"\n            fill=\"#fff\"\n        />\n      </g\n      >\n    </g\n    >\n  </g\n  >\n  <metadata\n    >\n    <rdf:RDF\n      >\n      <cc:Work\n        >\n        <dc:format\n          >image/svg+xml</dc:format\n        >\n        <dc:type\n            rdf:resource=\"http://purl.org/dc/dcmitype/StillImage\"\n        />\n        <cc:license\n            rdf:resource=\"http://creativecommons.org/licenses/publicdomain/\"\n        />\n        <dc:publisher\n          >\n          <cc:Agent\n              rdf:about=\"http://openclipart.org/\"\n            >\n            <dc:title\n              >Openclipart</dc:title\n            >\n          </cc:Agent\n          >\n        </dc:publisher\n        >\n        <dc:title\n          >Antique Bicycle</dc:title\n        >\n        <dc:date\n          >2013-07-11T16:54:44</dc:date\n        >\n        <dc:description\n          >An Antique Bicycle.</dc:description\n        >\n        <dc:source\n          >https://openclipart.org/detail/180205/antique-bicycle-by-solvera-180205</dc:source\n        >\n        <dc:creator\n          >\n          <cc:Agent\n            >\n            <dc:title\n              >SOlvera</dc:title\n            >\n          </cc:Agent\n          >\n        </dc:creator\n        >\n        <dc:subject\n          >\n          <rdf:Bag\n            >\n            <rdf:li\n              >Antique</rdf:li\n            >\n            <rdf:li\n              >bicycle</rdf:li\n            >\n            <rdf:li\n              >bike</rdf:li\n            >\n            <rdf:li\n              >trasportation.</rdf:li\n            >\n          </rdf:Bag\n          >\n        </dc:subject\n        >\n      </cc:Work\n      >\n      <cc:License\n          rdf:about=\"http://creativecommons.org/licenses/publicdomain/\"\n        >\n        <cc:permits\n            rdf:resource=\"http://creativecommons.org/ns#Reproduction\"\n        />\n        <cc:permits\n            rdf:resource=\"http://creativecommons.org/ns#Distribution\"\n        />\n        <cc:permits\n            rdf:resource=\"http://creativecommons.org/ns#DerivativeWorks\"\n        />\n      </cc:License\n      >\n    </rdf:RDF\n    >\n  </metadata\n  >\n</svg\n>\n"
  ],
  "numDeployments": 5,
  "solcInputHash": "30a02db6c702ddfdd948915aea9843ec",
  "bytecode": "0x60a06040523480156200001157600080fd5b5060405162003b6c38038062003b6c833981810160405281019062000037919062000575565b6040518060400160405280600a81526020017f44796e616d6963537667000000000000000000000000000000000000000000008152506040518060400160405280600381526020017f53564700000000000000000000000000000000000000000000000000000000008152508160009081620000b491906200085a565b508060019081620000c691906200085a565b5050506000600681905550620000e2826200015260201b60201c565b60099081620000f291906200085a565b5062000104816200015260201b60201c565b600890816200011491906200085a565b508273ffffffffffffffffffffffffffffffffffffffff1660808173ffffffffffffffffffffffffffffffffffffffff168152505050505062000ae0565b606060006200018d836040516020016200016d919062000983565b604051602081830303815290604052620001f060201b62000fec1760201c565b90506040518060400160405280601a81526020017f646174613a696d6167652f7376672b786d6c3b6261736536342c00000000000081525081604051602001620001d99291906200099c565b604051602081830303815290604052915050919050565b60606000825103620002145760405180602001604052806000815250905062000378565b600060405180606001604052806040815260200162003b2c6040913990506000600360028551620002469190620009f3565b62000252919062000a5d565b600462000260919062000a95565b90506000602082620002739190620009f3565b67ffffffffffffffff8111156200028f576200028e62000411565b5b6040519080825280601f01601f191660200182016040528015620002c25781602001600182028036833780820191505090505b509050818152600183018586518101602084015b8183101562000333576003830192508251603f8160121c168501518253600182019150603f81600c1c168501518253600182019150603f8160061c168501518253600182019150603f8116850151825360018201915050620002d6565b60038951066001811462000350576002811462000361576200036c565b613d3d60f01b60028303526200036c565b603d60f81b60018303525b50505050508093505050505b919050565b6000604051905090565b600080fd5b600080fd5b600073ffffffffffffffffffffffffffffffffffffffff82169050919050565b6000620003be8262000391565b9050919050565b620003d081620003b1565b8114620003dc57600080fd5b50565b600081519050620003f081620003c5565b92915050565b600080fd5b600080fd5b6000601f19601f8301169050919050565b7f4e487b7100000000000000000000000000000000000000000000000000000000600052604160045260246000fd5b6200044b8262000400565b810181811067ffffffffffffffff821117156200046d576200046c62000411565b5b80604052505050565b6000620004826200037d565b905062000490828262000440565b919050565b600067ffffffffffffffff821115620004b357620004b262000411565b5b620004be8262000400565b9050602081019050919050565b60005b83811015620004eb578082015181840152602081019050620004ce565b60008484015250505050565b60006200050e620005088462000495565b62000476565b9050828152602081018484840111156200052d576200052c620003fb565b5b6200053a848285620004cb565b509392505050565b600082601f8301126200055a5762000559620003f6565b5b81516200056c848260208601620004f7565b91505092915050565b60008060006060848603121562000591576200059062000387565b5b6000620005a186828701620003df565b935050602084015167ffffffffffffffff811115620005c557620005c46200038c565b5b620005d38682870162000542565b925050604084015167ffffffffffffffff811115620005f757620005f66200038c565b5b620006058682870162000542565b9150509250925092565b600081519050919050565b7f4e487b7100000000000000000000000000000000000000000000000000000000600052602260045260246000fd5b600060028204905060018216806200066257607f821691505b6020821081036200067857620006776200061a565b5b50919050565b60008190508160005260206000209050919050565b60006020601f8301049050919050565b600082821b905092915050565b600060088302620006e27fffffffffffffffffffffffffffffffffffffffffffffffffffffffffffffffff82620006a3565b620006ee8683620006a3565b95508019841693508086168417925050509392505050565b6000819050919050565b6000819050919050565b60006200073b620007356200072f8462000706565b62000710565b62000706565b9050919050565b6000819050919050565b62000757836200071a565b6200076f620007668262000742565b848454620006b0565b825550505050565b600090565b6200078662000777565b620007938184846200074c565b505050565b5b81811015620007bb57620007af6000826200077c565b60018101905062000799565b5050565b601f8211156200080a57620007d4816200067e565b620007df8462000693565b81016020851015620007ef578190505b62000807620007fe8562000693565b83018262000798565b50505b505050565b600082821c905092915050565b60006200082f600019846008026200080f565b1980831691505092915050565b60006200084a83836200081c565b9150826002028217905092915050565b62000865826200060f565b67ffffffffffffffff81111562000881576200088062000411565b5b6200088d825462000649565b6200089a828285620007bf565b600060209050601f831160018114620008d25760008415620008bd578287015190505b620008c985826200083c565b86555062000939565b601f198416620008e2866200067e565b60005b828110156200090c57848901518255600182019150602085019450602081019050620008e5565b868310156200092c578489015162000928601f8916826200081c565b8355505b6001600288020188555050505b505050505050565b600081905092915050565b600062000959826200060f565b62000965818562000941565b935062000977818560208601620004cb565b80840191505092915050565b60006200099182846200094c565b915081905092915050565b6000620009aa82856200094c565b9150620009b882846200094c565b91508190509392505050565b7f4e487b7100000000000000000000000000000000000000000000000000000000600052601160045260246000fd5b600062000a008262000706565b915062000a0d8362000706565b925082820190508082111562000a285762000a27620009c4565b5b92915050565b7f4e487b7100000000000000000000000000000000000000000000000000000000600052601260045260246000fd5b600062000a6a8262000706565b915062000a778362000706565b92508262000a8a5762000a8962000a2e565b5b828204905092915050565b600062000aa28262000706565b915062000aaf8362000706565b925082820262000abf8162000706565b9150828204841483151762000ad95762000ad8620009c4565b5b5092915050565b60805161303062000afc6000396000610c1a01526130306000f3fe608060405234801561001057600080fd5b50600436106101215760003560e01c806370a08231116100ad578063b88d4fde11610071578063b88d4fde1461031c578063c87b56dd14610338578063e2c6d0e114610368578063e2ed50cb14610386578063e985e9c5146103a257610121565b806370a08231146102765780637f9cc043146102a657806381d774a6146102c457806395d89b41146102e2578063a22cb4651461030057610121565b80631c05364a116100f45780631c05364a146101c057806323b872dd146101de57806330d871c6146101fa57806342842e0e1461022a5780636352211e1461024657610121565b806301ffc9a71461012657806306fdde0314610156578063081812fc14610174578063095ea7b3146101a4575b600080fd5b610140600480360381019061013b9190611cb8565b6103d2565b60405161014d9190611d00565b60405180910390f35b61015e6104b4565b60405161016b9190611dab565b60405180910390f35b61018e60048036038101906101899190611e03565b610546565b60405161019b9190611e71565b60405180910390f35b6101be60048036038101906101b99190611eb8565b61058c565b005b6101c86106a3565b6040516101d59190611dab565b60405180910390f35b6101f860048036038101906101f39190611ef8565b610731565b005b610214600480360381019061020f9190612080565b610791565b6040516102219190611dab565b60405180910390f35b610244600480360381019061023f9190611ef8565b61081e565b005b610260600480360381019061025b9190611e03565b61083e565b60405161026d9190611e71565b60405180910390f35b610290600480360381019061028b91906120c9565b6108ef565b60405161029d9190612105565b60405180910390f35b6102ae6109a6565b6040516102bb9190611dab565b60405180910390f35b6102cc610a34565b6040516102d99190611dab565b60405180910390f35b6102ea610ac2565b6040516102f79190611dab565b60405180910390f35b61031a6004803603810190610315919061214c565b610b54565b005b6103366004803603810190610331919061222d565b610b6a565b005b610352600480360381019061034d9190611e03565b610bcc565b60405161035f9190611dab565b60405180910390f35b610370610e4d565b60405161037d9190611dab565b60405180910390f35b6103a0600480360381019061039b91906122e6565b610edb565b005b6103bc60048036038101906103b79190612313565b610f58565b6040516103c99190611d00565b60405180910390f35b60007f80ac58cd000000000000000000000000000000000000000000000000000000007bffffffffffffffffffffffffffffffffffffffffffffffffffffffff1916827bffffffffffffffffffffffffffffffffffffffffffffffffffffffff1916148061049d57507f5b5e139f000000000000000000000000000000000000000000000000000000007bffffffffffffffffffffffffffffffffffffffffffffffffffffffff1916827bffffffffffffffffffffffffffffffffffffffffffffffffffffffff1916145b806104ad57506104ac82611164565b5b9050919050565b6060600080546104c390612382565b80601f01602080910402602001604051908101604052809291908181526020018280546104ef90612382565b801561053c5780601f106105115761010080835404028352916020019161053c565b820191906000526020600020905b81548152906001019060200180831161051f57829003601f168201915b5050505050905090565b6000610551826111ce565b6004600083815260200190815260200160002060009054906101000a900473ffffffffffffffffffffffffffffffffffffffff169050919050565b60006105978261083e565b90508073ffffffffffffffffffffffffffffffffffffffff168373ffffffffffffffffffffffffffffffffffffffff1603610607576040517f08c379a00000000000000000000000000000000000000000000000000000000081526004016105fe90612425565b60405180910390fd5b8073ffffffffffffffffffffffffffffffffffffffff16610626611219565b73ffffffffffffffffffffffffffffffffffffffff16148061065557506106548161064f611219565b610f58565b5b610694576040517f08c379a000000000000000000000000000000000000000000000000000000000815260040161068b906124b7565b60405180910390fd5b61069e8383611221565b505050565b600880546106b090612382565b80601f01602080910402602001604051908101604052809291908181526020018280546106dc90612382565b80156107295780601f106106fe57610100808354040283529160200191610729565b820191906000526020600020905b81548152906001019060200180831161070c57829003601f168201915b505050505081565b61074261073c611219565b826112da565b610781576040517f08c379a000000000000000000000000000000000000000000000000000000000815260040161077890612549565b60405180910390fd5b61078c83838361136f565b505050565b606060006107bd836040516020016107a991906125a5565b604051602081830303815290604052610fec565b90506040518060400160405280601a81526020017f646174613a696d6167652f7376672b786d6c3b6261736536342c000000000000815250816040516020016108079291906125bc565b604051602081830303815290604052915050919050565b61083983838360405180602001604052806000815250610b6a565b505050565b6000806002600084815260200190815260200160002060009054906101000a900473ffffffffffffffffffffffffffffffffffffffff169050600073ffffffffffffffffffffffffffffffffffffffff168173ffffffffffffffffffffffffffffffffffffffff16036108e6576040517f08c379a00000000000000000000000000000000000000000000000000000000081526004016108dd9061262c565b60405180910390fd5b80915050919050565b60008073ffffffffffffffffffffffffffffffffffffffff168273ffffffffffffffffffffffffffffffffffffffff160361095f576040517f08c379a0000000000000000000000000000000000000000000000000000000008152600401610956906126be565b60405180910390fd5b600360008373ffffffffffffffffffffffffffffffffffffffff1673ffffffffffffffffffffffffffffffffffffffff168152602001908152602001600020549050919050565b600a80546109b390612382565b80601f01602080910402602001604051908101604052809291908181526020018280546109df90612382565b8015610a2c5780601f10610a0157610100808354040283529160200191610a2c565b820191906000526020600020905b815481529060010190602001808311610a0f57829003601f168201915b505050505081565b60098054610a4190612382565b80601f0160208091040260200160405190810160405280929190818152602001828054610a6d90612382565b8015610aba5780601f10610a8f57610100808354040283529160200191610aba565b820191906000526020600020905b815481529060010190602001808311610a9d57829003601f168201915b505050505081565b606060018054610ad190612382565b80601f0160208091040260200160405190810160405280929190818152602001828054610afd90612382565b8015610b4a5780601f10610b1f57610100808354040283529160200191610b4a565b820191906000526020600020905b815481529060010190602001808311610b2d57829003601f168201915b5050505050905090565b610b66610b5f611219565b83836115d5565b5050565b610b7b610b75611219565b836112da565b610bba576040517f08c379a0000000000000000000000000000000000000000000000000000000008152600401610bb190612549565b60405180910390fd5b610bc684848484611741565b50505050565b6060610bd78261179d565b610c16576040517f08c379a0000000000000000000000000000000000000000000000000000000008152600401610c0d9061272a565b60405180910390fd5b60007f000000000000000000000000000000000000000000000000000000000000000073ffffffffffffffffffffffffffffffffffffffff1663feaf968c6040518163ffffffff1660e01b815260040160a060405180830381865afa158015610c83573d6000803e3d6000fd5b505050506040513d601f19601f82011682018060405250810190610ca791906127b6565b505050915050600060078054610cbc90612382565b80601f0160208091040260200160405190810160405280929190818152602001828054610ce890612382565b8015610d355780601f10610d0a57610100808354040283529160200191610d35565b820191906000526020600020905b815481529060010190602001808311610d1857829003601f168201915b50505050509050600b600085815260200190815260200160002054821315610de55760088054610d6490612382565b80601f0160208091040260200160405190810160405280929190818152602001828054610d9090612382565b8015610ddd5780601f10610db257610100808354040283529160200191610ddd565b820191906000526020600020905b815481529060010190602001808311610dc057829003601f168201915b505050505090505b6000610e18610df26104b4565b83604051602001610e04929190612a1f565b604051602081830303815290604052610fec565b9050610e22611809565b81604051602001610e349291906125bc565b6040516020818303038152906040529350505050919050565b60078054610e5a90612382565b80601f0160208091040260200160405190810160405280929190818152602001828054610e8690612382565b8015610ed35780601f10610ea857610100808354040283529160200191610ed3565b820191906000526020600020905b815481529060010190602001808311610eb657829003601f168201915b505050505081565b610ee733600654611846565b80600b60006006548152602001908152602001600020819055506006547fc37ec933758f9627db078e8640522afd243b01c601feebdc72a88e4c0a2fd42b82604051610f339190612a89565b60405180910390a2600160066000828254610f4e9190612ad3565b9250508190555050565b6000600560008473ffffffffffffffffffffffffffffffffffffffff1673ffffffffffffffffffffffffffffffffffffffff16815260200190815260200160002060008373ffffffffffffffffffffffffffffffffffffffff1673ffffffffffffffffffffffffffffffffffffffff16815260200190815260200160002060009054906101000a900460ff16905092915050565b6060600082510361100e5760405180602001604052806000815250905061115f565b6000604051806060016040528060408152602001612fbb604091399050600060036002855161103d9190612ad3565b6110479190612b36565b60046110539190612b67565b905060006020826110649190612ad3565b67ffffffffffffffff81111561107d5761107c611f55565b5b6040519080825280601f01601f1916602001820160405280156110af5781602001600182028036833780820191505090505b509050818152600183018586518101602084015b8183101561111e576003830192508251603f8160121c168501518253600182019150603f81600c1c168501518253600182019150603f8160061c168501518253600182019150603f81168501518253600182019150506110c3565b600389510660018114611138576002811461114857611153565b613d3d60f01b6002830352611153565b603d60f81b60018303525b50505050508093505050505b919050565b60007f01ffc9a7000000000000000000000000000000000000000000000000000000007bffffffffffffffffffffffffffffffffffffffffffffffffffffffff1916827bffffffffffffffffffffffffffffffffffffffffffffffffffffffff1916149050919050565b6111d78161179d565b611216576040517f08c379a000000000000000000000000000000000000000000000000000000000815260040161120d9061262c565b60405180910390fd5b50565b600033905090565b816004600083815260200190815260200160002060006101000a81548173ffffffffffffffffffffffffffffffffffffffff021916908373ffffffffffffffffffffffffffffffffffffffff160217905550808273ffffffffffffffffffffffffffffffffffffffff166112948361083e565b73ffffffffffffffffffffffffffffffffffffffff167f8c5be1e5ebec7d5bd14f71427d1e84f3dd0314c0f7b2291e5b200ac8c7c3b92560405160405180910390a45050565b6000806112e68361083e565b90508073ffffffffffffffffffffffffffffffffffffffff168473ffffffffffffffffffffffffffffffffffffffff16148061132857506113278185610f58565b5b8061136657508373ffffffffffffffffffffffffffffffffffffffff1661134e84610546565b73ffffffffffffffffffffffffffffffffffffffff16145b91505092915050565b8273ffffffffffffffffffffffffffffffffffffffff1661138f8261083e565b73ffffffffffffffffffffffffffffffffffffffff16146113e5576040517f08c379a00000000000000000000000000000000000000000000000000000000081526004016113dc90612c1b565b60405180910390fd5b600073ffffffffffffffffffffffffffffffffffffffff168273ffffffffffffffffffffffffffffffffffffffff1603611454576040517f08c379a000000000000000000000000000000000000000000000000000000000815260040161144b90612cad565b60405180910390fd5b61145f838383611864565b61146a600082611221565b6001600360008573ffffffffffffffffffffffffffffffffffffffff1673ffffffffffffffffffffffffffffffffffffffff16815260200190815260200160002060008282546114ba9190612ccd565b925050819055506001600360008473ffffffffffffffffffffffffffffffffffffffff1673ffffffffffffffffffffffffffffffffffffffff16815260200190815260200160002060008282546115119190612ad3565b92505081905550816002600083815260200190815260200160002060006101000a81548173ffffffffffffffffffffffffffffffffffffffff021916908373ffffffffffffffffffffffffffffffffffffffff160217905550808273ffffffffffffffffffffffffffffffffffffffff168473ffffffffffffffffffffffffffffffffffffffff167fddf252ad1be2c89b69c2b068fc378daa952ba7f163c4a11628f55a4df523b3ef60405160405180910390a46115d0838383611869565b505050565b8173ffffffffffffffffffffffffffffffffffffffff168373ffffffffffffffffffffffffffffffffffffffff1603611643576040517f08c379a000000000000000000000000000000000000000000000000000000000815260040161163a90612d4d565b60405180910390fd5b80600560008573ffffffffffffffffffffffffffffffffffffffff1673ffffffffffffffffffffffffffffffffffffffff16815260200190815260200160002060008473ffffffffffffffffffffffffffffffffffffffff1673ffffffffffffffffffffffffffffffffffffffff16815260200190815260200160002060006101000a81548160ff0219169083151502179055508173ffffffffffffffffffffffffffffffffffffffff168373ffffffffffffffffffffffffffffffffffffffff167f17307eab39ab6107e8899845ad3d59bd9653f200f220920489ca2b5937696c31836040516117349190611d00565b60405180910390a3505050565b61174c84848461136f565b6117588484848461186e565b611797576040517f08c379a000000000000000000000000000000000000000000000000000000000815260040161178e90612ddf565b60405180910390fd5b50505050565b60008073ffffffffffffffffffffffffffffffffffffffff166002600084815260200190815260200160002060009054906101000a900473ffffffffffffffffffffffffffffffffffffffff1673ffffffffffffffffffffffffffffffffffffffff1614159050919050565b60606040518060400160405280601d81526020017f646174613a6170706c69636174696f6e2f6a736f6e3b6261736536342c000000815250905090565b6118608282604051806020016040528060008152506119f5565b5050565b505050565b505050565b600061188f8473ffffffffffffffffffffffffffffffffffffffff16611a50565b156119e8578373ffffffffffffffffffffffffffffffffffffffff1663150b7a026118b8611219565b8786866040518563ffffffff1660e01b81526004016118da9493929190612e54565b6020604051808303816000875af192505050801561191657506040513d601f19601f820116820180604052508101906119139190612eb5565b60015b611998573d8060008114611946576040519150601f19603f3d011682016040523d82523d6000602084013e61194b565b606091505b506000815103611990576040517f08c379a000000000000000000000000000000000000000000000000000000000815260040161198790612ddf565b60405180910390fd5b805181602001fd5b63150b7a0260e01b7bffffffffffffffffffffffffffffffffffffffffffffffffffffffff1916817bffffffffffffffffffffffffffffffffffffffffffffffffffffffff1916149150506119ed565b600190505b949350505050565b6119ff8383611a73565b611a0c600084848461186e565b611a4b576040517f08c379a0000000000000000000000000000000000000000000000000000000008152600401611a4290612ddf565b60405180910390fd5b505050565b6000808273ffffffffffffffffffffffffffffffffffffffff163b119050919050565b600073ffffffffffffffffffffffffffffffffffffffff168273ffffffffffffffffffffffffffffffffffffffff1603611ae2576040517f08c379a0000000000000000000000000000000000000000000000000000000008152600401611ad990612f2e565b60405180910390fd5b611aeb8161179d565b15611b2b576040517f08c379a0000000000000000000000000000000000000000000000000000000008152600401611b2290612f9a565b60405180910390fd5b611b3760008383611864565b6001600360008473ffffffffffffffffffffffffffffffffffffffff1673ffffffffffffffffffffffffffffffffffffffff1681526020019081526020016000206000828254611b879190612ad3565b92505081905550816002600083815260200190815260200160002060006101000a81548173ffffffffffffffffffffffffffffffffffffffff021916908373ffffffffffffffffffffffffffffffffffffffff160217905550808273ffffffffffffffffffffffffffffffffffffffff16600073ffffffffffffffffffffffffffffffffffffffff167fddf252ad1be2c89b69c2b068fc378daa952ba7f163c4a11628f55a4df523b3ef60405160405180910390a4611c4860008383611869565b5050565b6000604051905090565b600080fd5b600080fd5b60007fffffffff0000000000000000000000000000000000000000000000000000000082169050919050565b611c9581611c60565b8114611ca057600080fd5b50565b600081359050611cb281611c8c565b92915050565b600060208284031215611cce57611ccd611c56565b5b6000611cdc84828501611ca3565b91505092915050565b60008115159050919050565b611cfa81611ce5565b82525050565b6000602082019050611d156000830184611cf1565b92915050565b600081519050919050565b600082825260208201905092915050565b60005b83811015611d55578082015181840152602081019050611d3a565b60008484015250505050565b6000601f19601f8301169050919050565b6000611d7d82611d1b565b611d878185611d26565b9350611d97818560208601611d37565b611da081611d61565b840191505092915050565b60006020820190508181036000830152611dc58184611d72565b905092915050565b6000819050919050565b611de081611dcd565b8114611deb57600080fd5b50565b600081359050611dfd81611dd7565b92915050565b600060208284031215611e1957611e18611c56565b5b6000611e2784828501611dee565b91505092915050565b600073ffffffffffffffffffffffffffffffffffffffff82169050919050565b6000611e5b82611e30565b9050919050565b611e6b81611e50565b82525050565b6000602082019050611e866000830184611e62565b92915050565b611e9581611e50565b8114611ea057600080fd5b50565b600081359050611eb281611e8c565b92915050565b60008060408385031215611ecf57611ece611c56565b5b6000611edd85828601611ea3565b9250506020611eee85828601611dee565b9150509250929050565b600080600060608486031215611f1157611f10611c56565b5b6000611f1f86828701611ea3565b9350506020611f3086828701611ea3565b9250506040611f4186828701611dee565b9150509250925092565b600080fd5b600080fd5b7f4e487b7100000000000000000000000000000000000000000000000000000000600052604160045260246000fd5b611f8d82611d61565b810181811067ffffffffffffffff82111715611fac57611fab611f55565b5b80604052505050565b6000611fbf611c4c565b9050611fcb8282611f84565b919050565b600067ffffffffffffffff821115611feb57611fea611f55565b5b611ff482611d61565b9050602081019050919050565b82818337600083830152505050565b600061202361201e84611fd0565b611fb5565b90508281526020810184848401111561203f5761203e611f50565b5b61204a848285612001565b509392505050565b600082601f83011261206757612066611f4b565b5b8135612077848260208601612010565b91505092915050565b60006020828403121561209657612095611c56565b5b600082013567ffffffffffffffff8111156120b4576120b3611c5b565b5b6120c084828501612052565b91505092915050565b6000602082840312156120df576120de611c56565b5b60006120ed84828501611ea3565b91505092915050565b6120ff81611dcd565b82525050565b600060208201905061211a60008301846120f6565b92915050565b61212981611ce5565b811461213457600080fd5b50565b60008135905061214681612120565b92915050565b6000806040838503121561216357612162611c56565b5b600061217185828601611ea3565b925050602061218285828601612137565b9150509250929050565b600067ffffffffffffffff8211156121a7576121a6611f55565b5b6121b082611d61565b9050602081019050919050565b60006121d06121cb8461218c565b611fb5565b9050828152602081018484840111156121ec576121eb611f50565b5b6121f7848285612001565b509392505050565b600082601f83011261221457612213611f4b565b5b81356122248482602086016121bd565b91505092915050565b6000806000806080858703121561224757612246611c56565b5b600061225587828801611ea3565b945050602061226687828801611ea3565b935050604061227787828801611dee565b925050606085013567ffffffffffffffff81111561229857612297611c5b565b5b6122a4878288016121ff565b91505092959194509250565b6000819050919050565b6122c3816122b0565b81146122ce57600080fd5b50565b6000813590506122e0816122ba565b92915050565b6000602082840312156122fc576122fb611c56565b5b600061230a848285016122d1565b91505092915050565b6000806040838503121561232a57612329611c56565b5b600061233885828601611ea3565b925050602061234985828601611ea3565b9150509250929050565b7f4e487b7100000000000000000000000000000000000000000000000000000000600052602260045260246000fd5b6000600282049050600182168061239a57607f821691505b6020821081036123ad576123ac612353565b5b50919050565b7f4552433732313a20617070726f76616c20746f2063757272656e74206f776e6560008201527f7200000000000000000000000000000000000000000000000000000000000000602082015250565b600061240f602183611d26565b915061241a826123b3565b604082019050919050565b6000602082019050818103600083015261243e81612402565b9050919050565b7f4552433732313a20617070726f76652063616c6c6572206973206e6f7420746f60008201527f6b656e206f776e6572206e6f7220617070726f76656420666f7220616c6c0000602082015250565b60006124a1603e83611d26565b91506124ac82612445565b604082019050919050565b600060208201905081810360008301526124d081612494565b9050919050565b7f4552433732313a2063616c6c6572206973206e6f7420746f6b656e206f776e6560008201527f72206e6f7220617070726f766564000000000000000000000000000000000000602082015250565b6000612533602e83611d26565b915061253e826124d7565b604082019050919050565b6000602082019050818103600083015261256281612526565b9050919050565b600081905092915050565b600061257f82611d1b565b6125898185612569565b9350612599818560208601611d37565b80840191505092915050565b60006125b18284612574565b915081905092915050565b60006125c88285612574565b91506125d48284612574565b91508190509392505050565b7f4552433732313a20696e76616c696420746f6b656e2049440000000000000000600082015250565b6000612616601883611d26565b9150612621826125e0565b602082019050919050565b6000602082019050818103600083015261264581612609565b9050919050565b7f4552433732313a2061646472657373207a65726f206973206e6f74206120766160008201527f6c6964206f776e65720000000000000000000000000000000000000000000000602082015250565b60006126a8602983611d26565b91506126b38261264c565b604082019050919050565b600060208201905081810360008301526126d78161269b565b9050919050565b7f55524920517565727920666f72206e6f6e6578697374656e7420746f6b656e00600082015250565b6000612714601f83611d26565b915061271f826126de565b602082019050919050565b6000602082019050818103600083015261274381612707565b9050919050565b600069ffffffffffffffffffff82169050919050565b6127698161274a565b811461277457600080fd5b50565b60008151905061278681612760565b92915050565b60008151905061279b816122ba565b92915050565b6000815190506127b081611dd7565b92915050565b600080600080600060a086880312156127d2576127d1611c56565b5b60006127e088828901612777565b95505060206127f18882890161278c565b9450506040612802888289016127a1565b9350506060612813888289016127a1565b925050608061282488828901612777565b9150509295509295909350565b7f7b226e616d65223a220000000000000000000000000000000000000000000000600082015250565b6000612867600983612569565b915061287282612831565b600982019050919050565b7f222c226465736372697074696f6e223a224e46542074686174206368616e676560008201527f7320646570656e64696e67206f6e20746865207072696365206f66204574686560208201527f7265756d222c0000000000000000000000000000000000000000000000000000604082015250565b60006128ff604683612569565b915061290a8261287d565b604682019050919050565b7f2261747472696275746573223a5b7b2274726169745f74797065223a2270726960008201527f6d6974697665222c2276616c7565223a317d5d2c000000000000000000000000602082015250565b6000612971603483612569565b915061297c82612915565b603482019050919050565b7f22696d616765223a220000000000000000000000000000000000000000000000600082015250565b60006129bd600983612569565b91506129c882612987565b600982019050919050565b7f227d000000000000000000000000000000000000000000000000000000000000600082015250565b6000612a09600283612569565b9150612a14826129d3565b600282019050919050565b6000612a2a8261285a565b9150612a368285612574565b9150612a41826128f2565b9150612a4c82612964565b9150612a57826129b0565b9150612a638284612574565b9150612a6e826129fc565b91508190509392505050565b612a83816122b0565b82525050565b6000602082019050612a9e6000830184612a7a565b92915050565b7f4e487b7100000000000000000000000000000000000000000000000000000000600052601160045260246000fd5b6000612ade82611dcd565b9150612ae983611dcd565b9250828201905080821115612b0157612b00612aa4565b5b92915050565b7f4e487b7100000000000000000000000000000000000000000000000000000000600052601260045260246000fd5b6000612b4182611dcd565b9150612b4c83611dcd565b925082612b5c57612b5b612b07565b5b828204905092915050565b6000612b7282611dcd565b9150612b7d83611dcd565b9250828202612b8b81611dcd565b91508282048414831517612ba257612ba1612aa4565b5b5092915050565b7f4552433732313a207472616e736665722066726f6d20696e636f72726563742060008201527f6f776e6572000000000000000000000000000000000000000000000000000000602082015250565b6000612c05602583611d26565b9150612c1082612ba9565b604082019050919050565b60006020820190508181036000830152612c3481612bf8565b9050919050565b7f4552433732313a207472616e7366657220746f20746865207a65726f2061646460008201527f7265737300000000000000000000000000000000000000000000000000000000602082015250565b6000612c97602483611d26565b9150612ca282612c3b565b604082019050919050565b60006020820190508181036000830152612cc681612c8a565b9050919050565b6000612cd882611dcd565b9150612ce383611dcd565b9250828203905081811115612cfb57612cfa612aa4565b5b92915050565b7f4552433732313a20617070726f766520746f2063616c6c657200000000000000600082015250565b6000612d37601983611d26565b9150612d4282612d01565b602082019050919050565b60006020820190508181036000830152612d6681612d2a565b9050919050565b7f4552433732313a207472616e7366657220746f206e6f6e20455243373231526560008201527f63656976657220696d706c656d656e7465720000000000000000000000000000602082015250565b6000612dc9603283611d26565b9150612dd482612d6d565b604082019050919050565b60006020820190508181036000830152612df881612dbc565b9050919050565b600081519050919050565b600082825260208201905092915050565b6000612e2682612dff565b612e308185612e0a565b9350612e40818560208601611d37565b612e4981611d61565b840191505092915050565b6000608082019050612e696000830187611e62565b612e766020830186611e62565b612e8360408301856120f6565b8181036060830152612e958184612e1b565b905095945050505050565b600081519050612eaf81611c8c565b92915050565b600060208284031215612ecb57612eca611c56565b5b6000612ed984828501612ea0565b91505092915050565b7f4552433732313a206d696e7420746f20746865207a65726f2061646472657373600082015250565b6000612f18602083611d26565b9150612f2382612ee2565b602082019050919050565b60006020820190508181036000830152612f4781612f0b565b9050919050565b7f4552433732313a20746f6b656e20616c7265616479206d696e74656400000000600082015250565b6000612f84601c83611d26565b9150612f8f82612f4e565b602082019050919050565b60006020820190508181036000830152612fb381612f77565b905091905056fe4142434445464748494a4b4c4d4e4f505152535455565758595a6162636465666768696a6b6c6d6e6f707172737475767778797a303132333435363738392b2fa264697066735822122021c03bbeb06bb94c94d9b7cbdb81370299c58f5b36cf5179d4d3be9e299a6c0164736f6c634300081100334142434445464748494a4b4c4d4e4f505152535455565758595a6162636465666768696a6b6c6d6e6f707172737475767778797a303132333435363738392b2f",
  "devdoc": {
    "kind": "dev",
    "methods": {
      "approve(address,uint256)": {
        "details": "See {IERC721-approve}."
      },
      "balanceOf(address)": {
        "details": "See {IERC721-balanceOf}."
      },
      "getApproved(uint256)": {
        "details": "See {IERC721-getApproved}."
      },
      "isApprovedForAll(address,address)": {
        "details": "See {IERC721-isApprovedForAll}."
      },
      "name()": {
        "details": "See {IERC721Metadata-name}."
      },
      "ownerOf(uint256)": {
        "details": "See {IERC721-ownerOf}."
      },
      "safeTransferFrom(address,address,uint256)": {
        "details": "See {IERC721-safeTransferFrom}."
      },
      "safeTransferFrom(address,address,uint256,bytes)": {
        "details": "See {IERC721-safeTransferFrom}."
      },
      "setApprovalForAll(address,bool)": {
        "details": "See {IERC721-setApprovalForAll}."
      },
      "supportsInterface(bytes4)": {
        "details": "See {IERC165-supportsInterface}."
      },
      "symbol()": {
        "details": "See {IERC721Metadata-symbol}."
      },
      "tokenURI(uint256)": {
        "details": "See {IERC721Metadata-tokenURI}."
      },
      "transferFrom(address,address,uint256)": {
        "details": "See {IERC721-transferFrom}."
      }
    },
    "version": 1
  },
  "userdoc": {
    "kind": "user",
    "methods": {},
    "version": 1
  },
  "storageLayout": {
    "storage": [
      {
        "astId": 128,
        "contract": "contracts/DynamicSvg.sol:DynamicSvg",
        "label": "_name",
        "offset": 0,
        "slot": "0",
        "type": "t_string_storage"
      },
      {
        "astId": 130,
        "contract": "contracts/DynamicSvg.sol:DynamicSvg",
        "label": "_symbol",
        "offset": 0,
        "slot": "1",
        "type": "t_string_storage"
      },
      {
        "astId": 134,
        "contract": "contracts/DynamicSvg.sol:DynamicSvg",
        "label": "_owners",
        "offset": 0,
        "slot": "2",
        "type": "t_mapping(t_uint256,t_address)"
      },
      {
        "astId": 138,
        "contract": "contracts/DynamicSvg.sol:DynamicSvg",
        "label": "_balances",
        "offset": 0,
        "slot": "3",
        "type": "t_mapping(t_address,t_uint256)"
      },
      {
        "astId": 142,
        "contract": "contracts/DynamicSvg.sol:DynamicSvg",
        "label": "_tokenApprovals",
        "offset": 0,
        "slot": "4",
        "type": "t_mapping(t_uint256,t_address)"
      },
      {
        "astId": 148,
        "contract": "contracts/DynamicSvg.sol:DynamicSvg",
        "label": "_operatorApprovals",
        "offset": 0,
        "slot": "5",
        "type": "t_mapping(t_address,t_mapping(t_address,t_bool))"
      },
      {
        "astId": 1833,
        "contract": "contracts/DynamicSvg.sol:DynamicSvg",
        "label": "s_token_counter",
        "offset": 0,
        "slot": "6",
        "type": "t_uint256"
      },
      {
        "astId": 1835,
        "contract": "contracts/DynamicSvg.sol:DynamicSvg",
        "label": "s_lowImageURI",
        "offset": 0,
        "slot": "7",
        "type": "t_string_storage"
      },
      {
        "astId": 1837,
        "contract": "contracts/DynamicSvg.sol:DynamicSvg",
        "label": "s_highImageURI",
        "offset": 0,
        "slot": "8",
        "type": "t_string_storage"
      },
      {
        "astId": 1839,
        "contract": "contracts/DynamicSvg.sol:DynamicSvg",
        "label": "s_lowImageSvg",
        "offset": 0,
        "slot": "9",
        "type": "t_string_storage"
      },
      {
        "astId": 1841,
        "contract": "contracts/DynamicSvg.sol:DynamicSvg",
        "label": "s_highImageSvg",
        "offset": 0,
        "slot": "10",
        "type": "t_string_storage"
      },
      {
        "astId": 1845,
        "contract": "contracts/DynamicSvg.sol:DynamicSvg",
        "label": "s_tokenIdToHighValue",
        "offset": 0,
        "slot": "11",
        "type": "t_mapping(t_uint256,t_int256)"
      }
    ],
    "types": {
      "t_address": {
        "encoding": "inplace",
        "label": "address",
        "numberOfBytes": "20"
      },
      "t_bool": {
        "encoding": "inplace",
        "label": "bool",
        "numberOfBytes": "1"
      },
      "t_int256": {
        "encoding": "inplace",
        "label": "int256",
        "numberOfBytes": "32"
      },
      "t_mapping(t_address,t_bool)": {
        "encoding": "mapping",
        "key": "t_address",
        "label": "mapping(address => bool)",
        "numberOfBytes": "32",
        "value": "t_bool"
      },
      "t_mapping(t_address,t_mapping(t_address,t_bool))": {
        "encoding": "mapping",
        "key": "t_address",
        "label": "mapping(address => mapping(address => bool))",
        "numberOfBytes": "32",
        "value": "t_mapping(t_address,t_bool)"
      },
      "t_mapping(t_address,t_uint256)": {
        "encoding": "mapping",
        "key": "t_address",
        "label": "mapping(address => uint256)",
        "numberOfBytes": "32",
        "value": "t_uint256"
      },
      "t_mapping(t_uint256,t_address)": {
        "encoding": "mapping",
        "key": "t_uint256",
        "label": "mapping(uint256 => address)",
        "numberOfBytes": "32",
        "value": "t_address"
      },
      "t_mapping(t_uint256,t_int256)": {
        "encoding": "mapping",
        "key": "t_uint256",
        "label": "mapping(uint256 => int256)",
        "numberOfBytes": "32",
        "value": "t_int256"
      },
      "t_string_storage": {
        "encoding": "bytes",
        "label": "string",
        "numberOfBytes": "32"
      },
      "t_uint256": {
        "encoding": "inplace",
        "label": "uint256",
        "numberOfBytes": "32"
      }
    }
  }
}