{
  "address": "0xe7f1725E7734CE288F8367e1Bb143E90bb3F0512",
  "abi": [
    {
      "inputs": [],
      "stateMutability": "nonpayable",
      "type": "constructor"
    },
    {
      "anonymous": false,
      "inputs": [
        {
          "indexed": true,
          "internalType": "address",
          "name": "owner",
          "type": "address"
        },
        {
          "indexed": true,
          "internalType": "address",
          "name": "approved",
          "type": "address"
        },
        {
          "indexed": true,
          "internalType": "uint256",
          "name": "tokenId",
          "type": "uint256"
        }
      ],
      "name": "Approval",
      "type": "event"
    },
    {
      "anonymous": false,
      "inputs": [
        {
          "indexed": true,
          "internalType": "address",
          "name": "owner",
          "type": "address"
        },
        {
          "indexed": true,
          "internalType": "address",
          "name": "operator",
          "type": "address"
        },
        {
          "indexed": false,
          "internalType": "bool",
          "name": "approved",
          "type": "bool"
        }
      ],
      "name": "ApprovalForAll",
      "type": "event"
    },
    {
      "anonymous": false,
      "inputs": [
        {
          "indexed": true,
          "internalType": "address",
          "name": "from",
          "type": "address"
        },
        {
          "indexed": true,
          "internalType": "address",
          "name": "to",
          "type": "address"
        },
        {
          "indexed": true,
          "internalType": "uint256",
          "name": "tokenId",
          "type": "uint256"
        }
      ],
      "name": "Transfer",
      "type": "event"
    },
    {
      "inputs": [],
      "name": "TOKEN_URI",
      "outputs": [
        {
          "internalType": "string",
          "name": "",
          "type": "string"
        }
      ],
      "stateMutability": "view",
      "type": "function"
    },
    {
      "inputs": [
        {
          "internalType": "address",
          "name": "to",
          "type": "address"
        },
        {
          "internalType": "uint256",
          "name": "tokenId",
          "type": "uint256"
        }
      ],
      "name": "approve",
      "outputs": [],
      "stateMutability": "nonpayable",
      "type": "function"
    },
    {
      "inputs": [
        {
          "internalType": "address",
          "name": "owner",
          "type": "address"
        }
      ],
      "name": "balanceOf",
      "outputs": [
        {
          "internalType": "uint256",
          "name": "",
          "type": "uint256"
        }
      ],
      "stateMutability": "view",
      "type": "function"
    },
    {
      "inputs": [
        {
          "internalType": "uint256",
          "name": "tokenId",
          "type": "uint256"
        }
      ],
      "name": "getApproved",
      "outputs": [
        {
          "internalType": "address",
          "name": "",
          "type": "address"
        }
      ],
      "stateMutability": "view",
      "type": "function"
    },
    {
      "inputs": [],
      "name": "getTokenCounter",
      "outputs": [
        {
          "internalType": "uint256",
          "name": "",
          "type": "uint256"
        }
      ],
      "stateMutability": "view",
      "type": "function"
    },
    {
      "inputs": [
        {
          "internalType": "address",
          "name": "owner",
          "type": "address"
        },
        {
          "internalType": "address",
          "name": "operator",
          "type": "address"
        }
      ],
      "name": "isApprovedForAll",
      "outputs": [
        {
          "internalType": "bool",
          "name": "",
          "type": "bool"
        }
      ],
      "stateMutability": "view",
      "type": "function"
    },
    {
      "inputs": [],
      "name": "mintNft",
      "outputs": [],
      "stateMutability": "nonpayable",
      "type": "function"
    },
    {
      "inputs": [],
      "name": "name",
      "outputs": [
        {
          "internalType": "string",
          "name": "",
          "type": "string"
        }
      ],
      "stateMutability": "view",
      "type": "function"
    },
    {
      "inputs": [
        {
          "internalType": "uint256",
          "name": "tokenId",
          "type": "uint256"
        }
      ],
      "name": "ownerOf",
      "outputs": [
        {
          "internalType": "address",
          "name": "",
          "type": "address"
        }
      ],
      "stateMutability": "view",
      "type": "function"
    },
    {
      "inputs": [
        {
          "internalType": "address",
          "name": "from",
          "type": "address"
        },
        {
          "internalType": "address",
          "name": "to",
          "type": "address"
        },
        {
          "internalType": "uint256",
          "name": "tokenId",
          "type": "uint256"
        }
      ],
      "name": "safeTransferFrom",
      "outputs": [],
      "stateMutability": "nonpayable",
      "type": "function"
    },
    {
      "inputs": [
        {
          "internalType": "address",
          "name": "from",
          "type": "address"
        },
        {
          "internalType": "address",
          "name": "to",
          "type": "address"
        },
        {
          "internalType": "uint256",
          "name": "tokenId",
          "type": "uint256"
        },
        {
          "internalType": "bytes",
          "name": "data",
          "type": "bytes"
        }
      ],
      "name": "safeTransferFrom",
      "outputs": [],
      "stateMutability": "nonpayable",
      "type": "function"
    },
    {
      "inputs": [
        {
          "internalType": "address",
          "name": "operator",
          "type": "address"
        },
        {
          "internalType": "bool",
          "name": "approved",
          "type": "bool"
        }
      ],
      "name": "setApprovalForAll",
      "outputs": [],
      "stateMutability": "nonpayable",
      "type": "function"
    },
    {
      "inputs": [
        {
          "internalType": "bytes4",
          "name": "interfaceId",
          "type": "bytes4"
        }
      ],
      "name": "supportsInterface",
      "outputs": [
        {
          "internalType": "bool",
          "name": "",
          "type": "bool"
        }
      ],
      "stateMutability": "view",
      "type": "function"
    },
    {
      "inputs": [],
      "name": "symbol",
      "outputs": [
        {
          "internalType": "string",
          "name": "",
          "type": "string"
        }
      ],
      "stateMutability": "view",
      "type": "function"
    },
    {
      "inputs": [],
      "name": "tokenURI",
      "outputs": [
        {
          "internalType": "string",
          "name": "",
          "type": "string"
        }
      ],
      "stateMutability": "pure",
      "type": "function"
    },
    {
      "inputs": [
        {
          "internalType": "uint256",
          "name": "tokenId",
          "type": "uint256"
        }
      ],
      "name": "tokenURI",
      "outputs": [
        {
          "internalType": "string",
          "name": "",
          "type": "string"
        }
      ],
      "stateMutability": "view",
      "type": "function"
    },
    {
      "inputs": [
        {
          "internalType": "address",
          "name": "from",
          "type": "address"
        },
        {
          "internalType": "address",
          "name": "to",
          "type": "address"
        },
        {
          "internalType": "uint256",
          "name": "tokenId",
          "type": "uint256"
        }
      ],
      "name": "transferFrom",
      "outputs": [],
      "stateMutability": "nonpayable",
      "type": "function"
    }
  ],
  "transactionHash": "0xdf09bd4d9b33de531bbac1a1abf1873641aff15e993689e9866799210e079bc6",
  "args": [],
  "numDeployments": 1,
  "solcInputHash": "9b7e645def07c65d6a370690e1d2b64a",
  "bytecode": "0x60806040523480156200001157600080fd5b506040518060400160405280600581526020017f446f6769650000000000000000000000000000000000000000000000000000008152506040518060400160405280600381526020017f444f47000000000000000000000000000000000000000000000000000000000081525081600090816200008f91906200032c565b508060019081620000a191906200032c565b505050600060068190555062000413565b600081519050919050565b7f4e487b7100000000000000000000000000000000000000000000000000000000600052604160045260246000fd5b7f4e487b7100000000000000000000000000000000000000000000000000000000600052602260045260246000fd5b600060028204905060018216806200013457607f821691505b6020821081036200014a5762000149620000ec565b5b50919050565b60008190508160005260206000209050919050565b60006020601f8301049050919050565b600082821b905092915050565b600060088302620001b47fffffffffffffffffffffffffffffffffffffffffffffffffffffffffffffffff8262000175565b620001c0868362000175565b95508019841693508086168417925050509392505050565b6000819050919050565b6000819050919050565b60006200020d620002076200020184620001d8565b620001e2565b620001d8565b9050919050565b6000819050919050565b6200022983620001ec565b62000241620002388262000214565b84845462000182565b825550505050565b600090565b6200025862000249565b620002658184846200021e565b505050565b5b818110156200028d57620002816000826200024e565b6001810190506200026b565b5050565b601f821115620002dc57620002a68162000150565b620002b18462000165565b81016020851015620002c1578190505b620002d9620002d08562000165565b8301826200026a565b50505b505050565b600082821c905092915050565b60006200030160001984600802620002e1565b1980831691505092915050565b60006200031c8383620002ee565b9150826002028217905092915050565b6200033782620000b2565b67ffffffffffffffff811115620003535762000352620000bd565b5b6200035f82546200011b565b6200036c82828562000291565b600060209050601f831160018114620003a457600084156200038f578287015190505b6200039b85826200030e565b8655506200040b565b601f198416620003b48662000150565b60005b82811015620003de57848901518255600182019150602085019450602081019050620003b7565b86831015620003fe5784890151620003fa601f891682620002ee565b8355505b6001600288020188555050505b505050505050565b6125dd80620004236000396000f3fe608060405234801561001057600080fd5b506004361061010b5760003560e01c80636e02007d116100a2578063a22cb46511610071578063a22cb465146102ba578063b88d4fde146102d6578063c2229fea146102f2578063c87b56dd146102fc578063e985e9c51461032c5761010b565b80636e02007d1461023057806370a082311461024e57806378ce90351461027e57806395d89b411461029c5761010b565b806323b872dd116100de57806323b872dd146101aa5780633c130d90146101c657806342842e0e146101e45780636352211e146102005761010b565b806301ffc9a71461011057806306fdde0314610140578063081812fc1461015e578063095ea7b31461018e575b600080fd5b61012a60048036038101906101259190611712565b61035c565b604051610137919061175a565b60405180910390f35b61014861043e565b6040516101559190611805565b60405180910390f35b6101786004803603810190610173919061185d565b6104d0565b60405161018591906118cb565b60405180910390f35b6101a860048036038101906101a39190611912565b610516565b005b6101c460048036038101906101bf9190611952565b61062d565b005b6101ce61068d565b6040516101db9190611805565b60405180910390f35b6101fe60048036038101906101f99190611952565b6106ad565b005b61021a6004803603810190610215919061185d565b6106cd565b60405161022791906118cb565b60405180910390f35b61023861077e565b60405161024591906119b4565b60405180910390f35b610268600480360381019061026391906119cf565b610788565b60405161027591906119b4565b60405180910390f35b61028661083f565b6040516102939190611805565b60405180910390f35b6102a461085b565b6040516102b19190611805565b60405180910390f35b6102d460048036038101906102cf9190611a28565b6108ed565b005b6102f060048036038101906102eb9190611b9d565b610903565b005b6102fa610965565b005b6103166004803603810190610311919061185d565b610988565b6040516103239190611805565b60405180910390f35b61034660048036038101906103419190611c20565b6109f0565b604051610353919061175a565b60405180910390f35b60007f80ac58cd000000000000000000000000000000000000000000000000000000007bffffffffffffffffffffffffffffffffffffffffffffffffffffffff1916827bffffffffffffffffffffffffffffffffffffffffffffffffffffffff1916148061042757507f5b5e139f000000000000000000000000000000000000000000000000000000007bffffffffffffffffffffffffffffffffffffffffffffffffffffffff1916827bffffffffffffffffffffffffffffffffffffffffffffffffffffffff1916145b80610437575061043682610a84565b5b9050919050565b60606000805461044d90611c8f565b80601f016020809104026020016040519081016040528092919081815260200182805461047990611c8f565b80156104c65780601f1061049b576101008083540402835291602001916104c6565b820191906000526020600020905b8154815290600101906020018083116104a957829003601f168201915b5050505050905090565b60006104db82610aee565b6004600083815260200190815260200160002060009054906101000a900473ffffffffffffffffffffffffffffffffffffffff169050919050565b6000610521826106cd565b90508073ffffffffffffffffffffffffffffffffffffffff168373ffffffffffffffffffffffffffffffffffffffff1603610591576040517f08c379a000000000000000000000000000000000000000000000000000000000815260040161058890611d32565b60405180910390fd5b8073ffffffffffffffffffffffffffffffffffffffff166105b0610b39565b73ffffffffffffffffffffffffffffffffffffffff1614806105df57506105de816105d9610b39565b6109f0565b5b61061e576040517f08c379a000000000000000000000000000000000000000000000000000000000815260040161061590611dc4565b60405180910390fd5b6106288383610b41565b505050565b61063e610638610b39565b82610bfa565b61067d576040517f08c379a000000000000000000000000000000000000000000000000000000000815260040161067490611e56565b60405180910390fd5b610688838383610c8f565b505050565b606060405180608001604052806057815260200161255160579139905090565b6106c883838360405180602001604052806000815250610903565b505050565b6000806002600084815260200190815260200160002060009054906101000a900473ffffffffffffffffffffffffffffffffffffffff169050600073ffffffffffffffffffffffffffffffffffffffff168173ffffffffffffffffffffffffffffffffffffffff1603610775576040517f08c379a000000000000000000000000000000000000000000000000000000000815260040161076c90611ec2565b60405180910390fd5b80915050919050565b6000600654905090565b60008073ffffffffffffffffffffffffffffffffffffffff168273ffffffffffffffffffffffffffffffffffffffff16036107f8576040517f08c379a00000000000000000000000000000000000000000000000000000000081526004016107ef90611f54565b60405180910390fd5b600360008373ffffffffffffffffffffffffffffffffffffffff1673ffffffffffffffffffffffffffffffffffffffff168152602001908152602001600020549050919050565b6040518060800160405280605781526020016125516057913981565b60606001805461086a90611c8f565b80601f016020809104026020016040519081016040528092919081815260200182805461089690611c8f565b80156108e35780601f106108b8576101008083540402835291602001916108e3565b820191906000526020600020905b8154815290600101906020018083116108c657829003601f168201915b5050505050905090565b6108ff6108f8610b39565b8383610ef5565b5050565b61091461090e610b39565b83610bfa565b610953576040517f08c379a000000000000000000000000000000000000000000000000000000000815260040161094a90611e56565b60405180910390fd5b61095f84848484611061565b50505050565b610971336006546110bd565b60016006546109809190611fa3565b600681905550565b606061099382610aee565b600061099d6110db565b905060008151116109bd57604051806020016040528060008152506109e8565b806109c7846110f2565b6040516020016109d8929190612013565b6040516020818303038152906040525b915050919050565b6000600560008473ffffffffffffffffffffffffffffffffffffffff1673ffffffffffffffffffffffffffffffffffffffff16815260200190815260200160002060008373ffffffffffffffffffffffffffffffffffffffff1673ffffffffffffffffffffffffffffffffffffffff16815260200190815260200160002060009054906101000a900460ff16905092915050565b60007f01ffc9a7000000000000000000000000000000000000000000000000000000007bffffffffffffffffffffffffffffffffffffffffffffffffffffffff1916827bffffffffffffffffffffffffffffffffffffffffffffffffffffffff1916149050919050565b610af781611252565b610b36576040517f08c379a0000000000000000000000000000000000000000000000000000000008152600401610b2d90611ec2565b60405180910390fd5b50565b600033905090565b816004600083815260200190815260200160002060006101000a81548173ffffffffffffffffffffffffffffffffffffffff021916908373ffffffffffffffffffffffffffffffffffffffff160217905550808273ffffffffffffffffffffffffffffffffffffffff16610bb4836106cd565b73ffffffffffffffffffffffffffffffffffffffff167f8c5be1e5ebec7d5bd14f71427d1e84f3dd0314c0f7b2291e5b200ac8c7c3b92560405160405180910390a45050565b600080610c06836106cd565b90508073ffffffffffffffffffffffffffffffffffffffff168473ffffffffffffffffffffffffffffffffffffffff161480610c485750610c4781856109f0565b5b80610c8657508373ffffffffffffffffffffffffffffffffffffffff16610c6e846104d0565b73ffffffffffffffffffffffffffffffffffffffff16145b91505092915050565b8273ffffffffffffffffffffffffffffffffffffffff16610caf826106cd565b73ffffffffffffffffffffffffffffffffffffffff1614610d05576040517f08c379a0000000000000000000000000000000000000000000000000000000008152600401610cfc906120a9565b60405180910390fd5b600073ffffffffffffffffffffffffffffffffffffffff168273ffffffffffffffffffffffffffffffffffffffff1603610d74576040517f08c379a0000000000000000000000000000000000000000000000000000000008152600401610d6b9061213b565b60405180910390fd5b610d7f8383836112be565b610d8a600082610b41565b6001600360008573ffffffffffffffffffffffffffffffffffffffff1673ffffffffffffffffffffffffffffffffffffffff1681526020019081526020016000206000828254610dda919061215b565b925050819055506001600360008473ffffffffffffffffffffffffffffffffffffffff1673ffffffffffffffffffffffffffffffffffffffff1681526020019081526020016000206000828254610e319190611fa3565b92505081905550816002600083815260200190815260200160002060006101000a81548173ffffffffffffffffffffffffffffffffffffffff021916908373ffffffffffffffffffffffffffffffffffffffff160217905550808273ffffffffffffffffffffffffffffffffffffffff168473ffffffffffffffffffffffffffffffffffffffff167fddf252ad1be2c89b69c2b068fc378daa952ba7f163c4a11628f55a4df523b3ef60405160405180910390a4610ef08383836112c3565b505050565b8173ffffffffffffffffffffffffffffffffffffffff168373ffffffffffffffffffffffffffffffffffffffff1603610f63576040517f08c379a0000000000000000000000000000000000000000000000000000000008152600401610f5a906121db565b60405180910390fd5b80600560008573ffffffffffffffffffffffffffffffffffffffff1673ffffffffffffffffffffffffffffffffffffffff16815260200190815260200160002060008473ffffffffffffffffffffffffffffffffffffffff1673ffffffffffffffffffffffffffffffffffffffff16815260200190815260200160002060006101000a81548160ff0219169083151502179055508173ffffffffffffffffffffffffffffffffffffffff168373ffffffffffffffffffffffffffffffffffffffff167f17307eab39ab6107e8899845ad3d59bd9653f200f220920489ca2b5937696c3183604051611054919061175a565b60405180910390a3505050565b61106c848484610c8f565b611078848484846112c8565b6110b7576040517f08c379a00000000000000000000000000000000000000000000000000000000081526004016110ae9061226d565b60405180910390fd5b50505050565b6110d782826040518060200160405280600081525061144f565b5050565b606060405180602001604052806000815250905090565b606060008203611139576040518060400160405280600181526020017f3000000000000000000000000000000000000000000000000000000000000000815250905061124d565b600082905060005b6000821461116b5780806111549061228d565b915050600a826111649190612304565b9150611141565b60008167ffffffffffffffff81111561118757611186611a72565b5b6040519080825280601f01601f1916602001820160405280156111b95781602001600182028036833780820191505090505b5090505b60008514611246576001826111d2919061215b565b9150600a856111e19190612335565b60306111ed9190611fa3565b60f81b81838151811061120357611202612366565b5b60200101907effffffffffffffffffffffffffffffffffffffffffffffffffffffffffffff1916908160001a905350600a8561123f9190612304565b94506111bd565b8093505050505b919050565b60008073ffffffffffffffffffffffffffffffffffffffff166002600084815260200190815260200160002060009054906101000a900473ffffffffffffffffffffffffffffffffffffffff1673ffffffffffffffffffffffffffffffffffffffff1614159050919050565b505050565b505050565b60006112e98473ffffffffffffffffffffffffffffffffffffffff166114aa565b15611442578373ffffffffffffffffffffffffffffffffffffffff1663150b7a02611312610b39565b8786866040518563ffffffff1660e01b815260040161133494939291906123ea565b6020604051808303816000875af192505050801561137057506040513d601f19601f8201168201806040525081019061136d919061244b565b60015b6113f2573d80600081146113a0576040519150601f19603f3d011682016040523d82523d6000602084013e6113a5565b606091505b5060008151036113ea576040517f08c379a00000000000000000000000000000000000000000000000000000000081526004016113e19061226d565b60405180910390fd5b805181602001fd5b63150b7a0260e01b7bffffffffffffffffffffffffffffffffffffffffffffffffffffffff1916817bffffffffffffffffffffffffffffffffffffffffffffffffffffffff191614915050611447565b600190505b949350505050565b61145983836114cd565b61146660008484846112c8565b6114a5576040517f08c379a000000000000000000000000000000000000000000000000000000000815260040161149c9061226d565b60405180910390fd5b505050565b6000808273ffffffffffffffffffffffffffffffffffffffff163b119050919050565b600073ffffffffffffffffffffffffffffffffffffffff168273ffffffffffffffffffffffffffffffffffffffff160361153c576040517f08c379a0000000000000000000000000000000000000000000000000000000008152600401611533906124c4565b60405180910390fd5b61154581611252565b15611585576040517f08c379a000000000000000000000000000000000000000000000000000000000815260040161157c90612530565b60405180910390fd5b611591600083836112be565b6001600360008473ffffffffffffffffffffffffffffffffffffffff1673ffffffffffffffffffffffffffffffffffffffff16815260200190815260200160002060008282546115e19190611fa3565b92505081905550816002600083815260200190815260200160002060006101000a81548173ffffffffffffffffffffffffffffffffffffffff021916908373ffffffffffffffffffffffffffffffffffffffff160217905550808273ffffffffffffffffffffffffffffffffffffffff16600073ffffffffffffffffffffffffffffffffffffffff167fddf252ad1be2c89b69c2b068fc378daa952ba7f163c4a11628f55a4df523b3ef60405160405180910390a46116a2600083836112c3565b5050565b6000604051905090565b600080fd5b600080fd5b60007fffffffff0000000000000000000000000000000000000000000000000000000082169050919050565b6116ef816116ba565b81146116fa57600080fd5b50565b60008135905061170c816116e6565b92915050565b600060208284031215611728576117276116b0565b5b6000611736848285016116fd565b91505092915050565b60008115159050919050565b6117548161173f565b82525050565b600060208201905061176f600083018461174b565b92915050565b600081519050919050565b600082825260208201905092915050565b60005b838110156117af578082015181840152602081019050611794565b60008484015250505050565b6000601f19601f8301169050919050565b60006117d782611775565b6117e18185611780565b93506117f1818560208601611791565b6117fa816117bb565b840191505092915050565b6000602082019050818103600083015261181f81846117cc565b905092915050565b6000819050919050565b61183a81611827565b811461184557600080fd5b50565b60008135905061185781611831565b92915050565b600060208284031215611873576118726116b0565b5b600061188184828501611848565b91505092915050565b600073ffffffffffffffffffffffffffffffffffffffff82169050919050565b60006118b58261188a565b9050919050565b6118c5816118aa565b82525050565b60006020820190506118e060008301846118bc565b92915050565b6118ef816118aa565b81146118fa57600080fd5b50565b60008135905061190c816118e6565b92915050565b60008060408385031215611929576119286116b0565b5b6000611937858286016118fd565b925050602061194885828601611848565b9150509250929050565b60008060006060848603121561196b5761196a6116b0565b5b6000611979868287016118fd565b935050602061198a868287016118fd565b925050604061199b86828701611848565b9150509250925092565b6119ae81611827565b82525050565b60006020820190506119c960008301846119a5565b92915050565b6000602082840312156119e5576119e46116b0565b5b60006119f3848285016118fd565b91505092915050565b611a058161173f565b8114611a1057600080fd5b50565b600081359050611a22816119fc565b92915050565b60008060408385031215611a3f57611a3e6116b0565b5b6000611a4d858286016118fd565b9250506020611a5e85828601611a13565b9150509250929050565b600080fd5b600080fd5b7f4e487b7100000000000000000000000000000000000000000000000000000000600052604160045260246000fd5b611aaa826117bb565b810181811067ffffffffffffffff82111715611ac957611ac8611a72565b5b80604052505050565b6000611adc6116a6565b9050611ae88282611aa1565b919050565b600067ffffffffffffffff821115611b0857611b07611a72565b5b611b11826117bb565b9050602081019050919050565b82818337600083830152505050565b6000611b40611b3b84611aed565b611ad2565b905082815260208101848484011115611b5c57611b5b611a6d565b5b611b67848285611b1e565b509392505050565b600082601f830112611b8457611b83611a68565b5b8135611b94848260208601611b2d565b91505092915050565b60008060008060808587031215611bb757611bb66116b0565b5b6000611bc5878288016118fd565b9450506020611bd6878288016118fd565b9350506040611be787828801611848565b925050606085013567ffffffffffffffff811115611c0857611c076116b5565b5b611c1487828801611b6f565b91505092959194509250565b60008060408385031215611c3757611c366116b0565b5b6000611c45858286016118fd565b9250506020611c56858286016118fd565b9150509250929050565b7f4e487b7100000000000000000000000000000000000000000000000000000000600052602260045260246000fd5b60006002820490506001821680611ca757607f821691505b602082108103611cba57611cb9611c60565b5b50919050565b7f4552433732313a20617070726f76616c20746f2063757272656e74206f776e6560008201527f7200000000000000000000000000000000000000000000000000000000000000602082015250565b6000611d1c602183611780565b9150611d2782611cc0565b604082019050919050565b60006020820190508181036000830152611d4b81611d0f565b9050919050565b7f4552433732313a20617070726f76652063616c6c6572206973206e6f7420746f60008201527f6b656e206f776e6572206e6f7220617070726f76656420666f7220616c6c0000602082015250565b6000611dae603e83611780565b9150611db982611d52565b604082019050919050565b60006020820190508181036000830152611ddd81611da1565b9050919050565b7f4552433732313a2063616c6c6572206973206e6f7420746f6b656e206f776e6560008201527f72206e6f7220617070726f766564000000000000000000000000000000000000602082015250565b6000611e40602e83611780565b9150611e4b82611de4565b604082019050919050565b60006020820190508181036000830152611e6f81611e33565b9050919050565b7f4552433732313a20696e76616c696420746f6b656e2049440000000000000000600082015250565b6000611eac601883611780565b9150611eb782611e76565b602082019050919050565b60006020820190508181036000830152611edb81611e9f565b9050919050565b7f4552433732313a2061646472657373207a65726f206973206e6f74206120766160008201527f6c6964206f776e65720000000000000000000000000000000000000000000000602082015250565b6000611f3e602983611780565b9150611f4982611ee2565b604082019050919050565b60006020820190508181036000830152611f6d81611f31565b9050919050565b7f4e487b7100000000000000000000000000000000000000000000000000000000600052601160045260246000fd5b6000611fae82611827565b9150611fb983611827565b9250828201905080821115611fd157611fd0611f74565b5b92915050565b600081905092915050565b6000611fed82611775565b611ff78185611fd7565b9350612007818560208601611791565b80840191505092915050565b600061201f8285611fe2565b915061202b8284611fe2565b91508190509392505050565b7f4552433732313a207472616e736665722066726f6d20696e636f72726563742060008201527f6f776e6572000000000000000000000000000000000000000000000000000000602082015250565b6000612093602583611780565b915061209e82612037565b604082019050919050565b600060208201905081810360008301526120c281612086565b9050919050565b7f4552433732313a207472616e7366657220746f20746865207a65726f2061646460008201527f7265737300000000000000000000000000000000000000000000000000000000602082015250565b6000612125602483611780565b9150612130826120c9565b604082019050919050565b6000602082019050818103600083015261215481612118565b9050919050565b600061216682611827565b915061217183611827565b925082820390508181111561218957612188611f74565b5b92915050565b7f4552433732313a20617070726f766520746f2063616c6c657200000000000000600082015250565b60006121c5601983611780565b91506121d08261218f565b602082019050919050565b600060208201905081810360008301526121f4816121b8565b9050919050565b7f4552433732313a207472616e7366657220746f206e6f6e20455243373231526560008201527f63656976657220696d706c656d656e7465720000000000000000000000000000602082015250565b6000612257603283611780565b9150612262826121fb565b604082019050919050565b600060208201905081810360008301526122868161224a565b9050919050565b600061229882611827565b91507fffffffffffffffffffffffffffffffffffffffffffffffffffffffffffffffff82036122ca576122c9611f74565b5b600182019050919050565b7f4e487b7100000000000000000000000000000000000000000000000000000000600052601260045260246000fd5b600061230f82611827565b915061231a83611827565b92508261232a576123296122d5565b5b828204905092915050565b600061234082611827565b915061234b83611827565b92508261235b5761235a6122d5565b5b828206905092915050565b7f4e487b7100000000000000000000000000000000000000000000000000000000600052603260045260246000fd5b600081519050919050565b600082825260208201905092915050565b60006123bc82612395565b6123c681856123a0565b93506123d6818560208601611791565b6123df816117bb565b840191505092915050565b60006080820190506123ff60008301876118bc565b61240c60208301866118bc565b61241960408301856119a5565b818103606083015261242b81846123b1565b905095945050505050565b600081519050612445816116e6565b92915050565b600060208284031215612461576124606116b0565b5b600061246f84828501612436565b91505092915050565b7f4552433732313a206d696e7420746f20746865207a65726f2061646472657373600082015250565b60006124ae602083611780565b91506124b982612478565b602082019050919050565b600060208201905081810360008301526124dd816124a1565b9050919050565b7f4552433732313a20746f6b656e20616c7265616479206d696e74656400000000600082015250565b600061251a601c83611780565b9150612525826124e4565b602082019050919050565b600060208201905081810360008301526125498161250d565b905091905056fe697066733a2f2f62616679626569673337696f6972373673376d67356f6f6265746e636f6a636d3363336878617379643472766964346a71687934676b61686567342f3f66696c656e616d653d302d5055472e6a736f6ea26469706673582212200d606f189330942ff77b07de5cbe8f233ec43a469b7919db36b108ed18ea603664736f6c63430008110033",
  "devdoc": {
    "kind": "dev",
    "methods": {
      "approve(address,uint256)": {
        "details": "See {IERC721-approve}."
      },
      "balanceOf(address)": {
        "details": "See {IERC721-balanceOf}."
      },
      "getApproved(uint256)": {
        "details": "See {IERC721-getApproved}."
      },
      "isApprovedForAll(address,address)": {
        "details": "See {IERC721-isApprovedForAll}."
      },
      "name()": {
        "details": "See {IERC721Metadata-name}."
      },
      "ownerOf(uint256)": {
        "details": "See {IERC721-ownerOf}."
      },
      "safeTransferFrom(address,address,uint256)": {
        "details": "See {IERC721-safeTransferFrom}."
      },
      "safeTransferFrom(address,address,uint256,bytes)": {
        "details": "See {IERC721-safeTransferFrom}."
      },
      "setApprovalForAll(address,bool)": {
        "details": "See {IERC721-setApprovalForAll}."
      },
      "supportsInterface(bytes4)": {
        "details": "See {IERC165-supportsInterface}."
      },
      "symbol()": {
        "details": "See {IERC721Metadata-symbol}."
      },
      "tokenURI(uint256)": {
        "details": "See {IERC721Metadata-tokenURI}."
      },
      "transferFrom(address,address,uint256)": {
        "details": "See {IERC721-transferFrom}."
      }
    },
    "version": 1
  },
  "userdoc": {
    "kind": "user",
    "methods": {},
    "version": 1
  },
  "storageLayout": {
    "storage": [
      {
        "astId": 65,
        "contract": "contracts/mock/BasicNft.sol:BasicNft",
        "label": "_name",
        "offset": 0,
        "slot": "0",
        "type": "t_string_storage"
      },
      {
        "astId": 67,
        "contract": "contracts/mock/BasicNft.sol:BasicNft",
        "label": "_symbol",
        "offset": 0,
        "slot": "1",
        "type": "t_string_storage"
      },
      {
        "astId": 71,
        "contract": "contracts/mock/BasicNft.sol:BasicNft",
        "label": "_owners",
        "offset": 0,
        "slot": "2",
        "type": "t_mapping(t_uint256,t_address)"
      },
      {
        "astId": 75,
        "contract": "contracts/mock/BasicNft.sol:BasicNft",
        "label": "_balances",
        "offset": 0,
        "slot": "3",
        "type": "t_mapping(t_address,t_uint256)"
      },
      {
        "astId": 79,
        "contract": "contracts/mock/BasicNft.sol:BasicNft",
        "label": "_tokenApprovals",
        "offset": 0,
        "slot": "4",
        "type": "t_mapping(t_uint256,t_address)"
      },
      {
        "astId": 85,
        "contract": "contracts/mock/BasicNft.sol:BasicNft",
        "label": "_operatorApprovals",
        "offset": 0,
        "slot": "5",
        "type": "t_mapping(t_address,t_mapping(t_address,t_bool))"
      },
      {
        "astId": 2122,
        "contract": "contracts/mock/BasicNft.sol:BasicNft",
        "label": "s_tokenCounter",
        "offset": 0,
        "slot": "6",
        "type": "t_uint256"
      }
    ],
    "types": {
      "t_address": {
        "encoding": "inplace",
        "label": "address",
        "numberOfBytes": "20"
      },
      "t_bool": {
        "encoding": "inplace",
        "label": "bool",
        "numberOfBytes": "1"
      },
      "t_mapping(t_address,t_bool)": {
        "encoding": "mapping",
        "key": "t_address",
        "label": "mapping(address => bool)",
        "numberOfBytes": "32",
        "value": "t_bool"
      },
      "t_mapping(t_address,t_mapping(t_address,t_bool))": {
        "encoding": "mapping",
        "key": "t_address",
        "label": "mapping(address => mapping(address => bool))",
        "numberOfBytes": "32",
        "value": "t_mapping(t_address,t_bool)"
      },
      "t_mapping(t_address,t_uint256)": {
        "encoding": "mapping",
        "key": "t_address",
        "label": "mapping(address => uint256)",
        "numberOfBytes": "32",
        "value": "t_uint256"
      },
      "t_mapping(t_uint256,t_address)": {
        "encoding": "mapping",
        "key": "t_uint256",
        "label": "mapping(uint256 => address)",
        "numberOfBytes": "32",
        "value": "t_address"
      },
      "t_string_storage": {
        "encoding": "bytes",
        "label": "string",
        "numberOfBytes": "32"
      },
      "t_uint256": {
        "encoding": "inplace",
        "label": "uint256",
        "numberOfBytes": "32"
      }
    }
  }
}